:020000040000fa
:080000000022040000000000d2
:020000040000fa
:1000080004200000082000000c2000001020000040
:1000180014200000182000001c200000e02100002f
:100028002020000024200000282000002c200000b0
:100038003020000034200000382000003c20000060
:100048004020000044200000482000004c20000010
:100058005020000054200000582000005c200000c0
:100068006020000064200000682000006c20000070
:100078007020000074200000782000007c20000020
:100088008020000084200000882000008c200000d0
:100098009020000094200000982000009c20000080
:1000a800a0200000a4200000a8200000ac20000030
:1000b800b0200000b4200000b8200000bc200000e0
:1000c800c0200000c4200000c8200000cc20000090
:1000d800d0200000d4200000d8200000dc20000040
:1000e800e0200000e4200000e8200000ec200000f0
:1000f800f0200000f4200000f8200000fc200000a0
:100108000021000004210000082100000c2100004b
:10011800102100001421000018210000e021000037
:10012800e02100001c210000202100002421000003
:10013800282100002c21000030210000342100007b
:10014800e021000038210000e02100003c210000ef
:10015800e0210000e0210000e0210000e021000093
:10016800e021000040210000442100004821000057
:10017800e0210000e02100004c2100005021000097
:1001880054210000582100005c210000602100007b
:1001980064210000682100006c210000702100002b
:1001a8007421000078210000e0210000e021000017
:1001b800e0210000e0210000e0210000e021000033
:1001c800e0210000e0210000e0210000e021000023
:1001d800e0210000e0210000e0210000e021000013
:1001e800e0210000e0210000e0210000e021000003
:1001f800e0210000e02100007c21000080210000b7
:1002080084210000882100008c210000902100003a
:1002180094210000982100009c210000a0210000ea
:10022800a4210000a8210000ac210000b02100009a
:10023800b4210000e0210000b8210000bc2100002a
:10024800c0210000c4210000c8210000cc2100000a
:10025800d0210000d4210000d8210000dc210000ba
:020000040000fa
:104000000022040000000000fa220400000000006a
:10401000fa22040000000000fa2204000000000060
:10402000fa22040000000000fa2204000000000050
:10403000fa22040000000000fa2204000000000040
:10404000fa22040000000000fa2204000000000030
:10405000fa22040000000000fa2204000000000020
:10406000fa22040000000000fa2204000000000010
:10407000fa22040000000000fa2204000000000000
:10408000fa22040000000000fa22040000000000f0
:10409000fa22040000000000fa22040000000000e0
:1040a000fa22040000000000fa22040000000000d0
:1040b000fa22040000000000fa22040000000000c0
:1040c000fa22040000000000fa22040000000000b0
:1040d000fa22040000000000fa22040000000000a0
:1040e000fa22040000000000fa2204000000000090
:1040f000fa22040000000000fa2204000000000080
:10410000fa22040000000000fa220400000000006f
:10411000fa22040000000000fa220400000000005f
:10412000fa22040000000000fa220400000000004f
:10413000fa22040000000000fa220400000000003f
:10414000fa22040000000000fa220400000000002f
:10415000fa22040000000000fa220400000000001f
:10416000fa22040000000000fa220400000000000f
:10417000fa22040000000000fa22040000000000ff
:10418000fa22040000000000fa22040000000000ef
:10419000fa22040000000000fa22040000000000df
:1041a000fa22040000000000fa22040000000000cf
:1041b000fa22040000000000fa22040000000000bf
:1041c000fa22040000000000fa22040000000000af
:1041d000fa22040000000000fa220400000000009f
:1041e000fa22040000000000fa220400000000008f
:1041f000fa22040000000000fa220400000000007f
:10420000fa22040000000000fa220400000000006e
:10421000fa22040000000000fa220400000000005e
:10422000fa22040000000000fa220400000000004e
:10423000fa22040000000000fa220400000000003e
:10424000fa22040000000000fa220400000000002e
:10425000fa22040000000000fa220400000000001e
:10426000fa22040000000000fa220400000000000e
:10427000fa22040000000000fa22040000000000fe
:10428000fa22040000000000fa22040000000000ee
:10429000fa22040000000000fa22040000000000de
:1042a000fa22040000000000fa22040000000000ce
:1042b000fa22040000000000fa22040000000000be
:1042c000fa22040000000000fa22040000000000ae
:1042d000fa22040000000000fa220400000000009e
:1042e000fa22040000000000fa220400000000008e
:1042f000fa22040000000000fa220400000000007e
:10430000fa22040000000000fa220400000000006d
:10431000fa22040000000000fa220400000000005d
:10432000fa22040000000000fa220400000000004d
:10433000fa22040000000000fa220400000000003d
:10434000fa22040000000000fa220400000000002d
:10435000fa22040000000000fa220400000000001d
:10436000fa22040000000000fa220400000000000d
:10437000fa22040000000000fa22040000000000fd
:10438000fa22040000000000fa22040000000000ed
:10439000fa22040000000000fa22040000000000dd
:1043a000fa22040000000000fa22040000000000cd
:1043b000fa22040000000000fa22040000000000bd
:0843c000fa22040000000000d5
:020000040000fa
:10440000ef0021000eff27000e01880000000000d1
:10441000000020000000e000020032000001200047
:104420002002880014000700740007000000e0006c
:1044300003003a00c0f9220001002000020037000a
:104440000000200001002000810f700001003200f8
:104450000f000700000020000000e0000200320012
:104460000000020000000000182d02000000000003
:104470000040da000000fe00800120000000e000a3
:104480000200320000202000900188000000060099
:10449000a1028800800478000000eb001f003700b4
:1044a000e284440054a0b4009905ba00e2844400b8
:1044b00054a0b4009906ba00e284440054a0b400a9
:1044c0000006eb00476fde00fd07b200ae0188007a
:1044d000636ce10003003a000ad801000000eb0021
:1044e0000e003700606ce10008003a00004deb0060
:1044f0000a05e800020039003420ec000af0a000b0
:104500008b05e900f9ff3e00040037006168e10017
:10451000010032000086eb000b00070019c7ba004b
:104520000e04e0001905ba0003003a000a00e0009a
:10453000dbff3a0000000600fe07b200ae02880072
:104540008a047800f5ff37000cd0a300e20f4d007d
:104550001c00390089027800354dba000a05e800d0
:10456000020039003420ec000af0a0008b05e900bd
:104570000f003200254dba000a05e800020039009c
:104580003420ec000af0a0008b05e900080032009e
:104590000c00e0000600320015cdba000a05e80064
:1045a000020039003420ec000af0a0008b05e9007d
:1045b0008984e80054a0b4000b00e000e2ff3a0058
:1045c000000006009902ba00055d78008b05e9003d
:1045d000f7ff3200c82ade00055d78008b05e90090
:1045e000f3ff32000c00e000f1ff320019ddba00e9
:1045f000eeff37000040da000000fe00000005007a
:104600006022b800060220000000d0008180d200a5
:104610000482d2008582d2000000a0000202520073
:1046200083825a00030031000202420083824a0062
:104630000000a1000603e900f3ff3a0000000600b5
:0c464000efff07000400be0000000600b1
:020000040000fa
:10464c0053680000656e000067740000616900002b
:10465c000031000038000000330000002020000072
:10466c00202000002020000020200000000000007e
:020000040000fa
:10467c000000fa000080800030808800346ea900b1
:10468c000180800000ff2f00008060000080880007
:10469c00308ea90030aea90030cea90030eea900b2
:1046ac00306ea900302ea900304ea9000180800088
:1046bc0000ff2f00008060000080880000808000d8
:1046cc003000b300008088000080800061406000f2
:1046dc000080fb00610060004400dd00a1718000df
:1046ec000140a10001007000a071880000808000d2
:1046fc000000d100614060000080fb0061006000a0
:10470c004500dd00a17180000150a1000100700086
:10471c00a0718800008080004200de0061406000d3
:10472c000080fb00610060004600dd00a17180008c
:10473c000160a10001007000a07188000080800061
:10474c004300de00614060000080fb0061006000ff
:10475c004700dd00a17180000170a1000100700014
:10476c00a0718800f8010700590207000180800041
:10477c0000ff2f0000806000008088000080800017
:10478c003000b30000808800008080006140600031
:10479c000080fb00610060004400dd00a17180001e
:1047ac000140a10001007000a07188000080800011
:1047bc000000d100614060000080fb0061006000df
:1047cc004500dd00a17180000150a10001007000c6
:1047dc00a0718800008080004200de006140600013
:1047ec000080fb00610060004600dd00a1718000cc
:1047fc000160a10001007000a071880000808000a1
:10480c004300de00614060000080fb00610060003e
:10481c004700dd00a17180000170a1000100700053
:10482c00a0718800c80107002902070001808000e0
:10483c0000ff2f0000806000008088000080800056
:10484c003000b30000808800008080006140600070
:10485c000080fb00610060004400dd00a17180005d
:10486c000140a10001007000a07188000080800050
:10487c000000d100614060000080fb00610060001e
:10488c004500dd00a17180000150a1000100700005
:10489c00a0718800008080004200de006140600052
:1048ac000080fb00610060004600dd00a17180000b
:1048bc000160a10001007000a071880000808000e0
:1048cc004300de00614060000080fb00610060007e
:1048dc004700dd00a17180000170a1000100700093
:1048ec00a071880098010700f90107000180800081
:1048fc0000ff2f0000806000008088000080800096
:10490c000010a000008088000080800061406000e2
:10491c000080fb00610060004400dd00a17180009c
:10492c000140a10001007000a0718800008080008f
:10493c000000d100614060000080fb00610060005d
:10494c004500dd00a17180000150a1000100700044
:10495c00a0718800008080004200de006140600091
:10496c000080fb00610060004600dd00a17180004a
:10497c000160a10001007000a0718800008080001f
:10498c004300de00614060000080fb0061006000bd
:10499c004700dd00a17180000170a10001007000d2
:1049ac00a071880068010700c901070080c2b3002c
:1049bc0035000700d2010700c0c0b3003200070069
:1049cc00cf01070060c0b3002f000700cc01070027
:1049dc0010c0b3002c000700bd0107003080800020
:1049ec000080880000808000614060000080fb0037
:1049fc00610060004400dd00a17180000140a10055
:104a0c0001007000a0718800008080000000d100bf
:104a1c00614060000080fb00610060004500dd002b
:104a2c00a17180000150a10001007000a0718800ec
:104a3c00008080004200de00614060000080fb00ce
:104a4c00610060004600dd00a17180000160a100e2
:104a5c0001007000a0718800008080004300de001f
:104a6c00614060000080fb00610060004700dd00d9
:104a7c00a17180000170a10001007000a07188007c
:104a8c000080fa00000006000200fa00004f7800d7
:104a9c0000808000308088001e80fb004400de0017
:104aac000040780002f0b7000180800000ff2f006a
:104abc008080600002d0bf000080fb00010070000d
:104acc000080880000808000614060000080fb0056
:104adc00610060004400dd00a17180000140a10074
:104aec0001007000a0718800008080000000d100df
:104afc00614060000080fb00610060004500dd004b
:104b0c00a17180000150a10001007000a07188000b
:104b1c00008080004200de00614060000080fb00ed
:104b2c00610060004600dd00a17180000160a10001
:104b3c0001007000a0718800008080004300de003e
:104b4c00614060000080fb00610060004700dd00f8
:104b5c00a17180000170a10001007000a07188009b
:104b6c00f90007009e4078006fc0600002f0b700ab
:104b7c000180800000ff2f008080600002d0bf0009
:104b8c000080fb0001007000008088000080800025
:104b9c00614060000080fb00610060004400dd00ab
:104bac00a17180000140a10001007000a07188007b
:104bbc00008080000000d100614060000080fb009c
:104bcc00610060004500dd00a17180000150a10072
:104bdc0001007000a0718800008080004200de009f
:104bec00614060000080fb00610060004600dd0059
:104bfc00a17180000160a10001007000a07188000b
:104c0c00008080004300de00614060000080fb00fb
:104c1c00610060004700dd00a17180000170a100ff
:104c2c0001007000a0718800c70007003080800070
:104c3c000080880000808000614060000080fb00e4
:104c4c00610060004400dd00a17180000140a10002
:104c5c0001007000a0718800008080000000d1006d
:104c6c00614060000080fb00610060004500dd00d9
:104c7c00a17180000150a10001007000a07188009a
:104c8c00008080004200de00614060000080fb007c
:104c9c00610060004600dd00a17180000160a10090
:104cac0001007000a0718800008080004300de00cd
:104cbc00614060000080fb00610060004700dd0087
:104ccc00a17180000170a10001007000a07188002a
:104cdc000b0107000080fa00000006000200fa0039
:104cec00004f780000808000308088001e80fb0020
:104cfc004400de000040780002f0b7000180800024
:104d0c0000ff2f008080600002d0bf000080fb00fd
:104d1c00010070000080880000808000614060000d
:104d2c000080fb00610060004400dd00a171800088
:104d3c000140a10001007000a0718800008080007b
:104d4c000000d100614060000080fb006100600049
:104d5c004500dd00a17180000150a1000100700030
:104d6c00a0718800008080004200de00614060007d
:104d7c000080fb00610060004600dd00a171800036
:104d8c000160a10001007000a0718800008080000b
:104d9c004300de00614060000080fb0061006000a9
:104dac004700dd00a17180000170a10001007000be
:104dbc00a0718800710007009e4078006fc06000f1
:104dcc0002f0b7000180800000ff2f00808060009f
:104ddc0002d0bf000080fb00010070000080880042
:104dec0000808000614060000080fb00610060007a
:104dfc004400dd00a17180000140a10001007000a1
:104e0c00a0718800008080000000d100614060002b
:104e1c000080fb00610060004500dd00a171800096
:104e2c000150a10001007000a0718800008080007a
:104e3c004200de00614060000080fb006100600009
:104e4c004600dd00a17180000160a100010070002e
:104e5c00a0718800008080004300de00614060008b
:104e6c000080fb00610060004700dd00a171800044
:104e7c000170a10001007000a07188003f000700c4
:104e8c0030808000008088000080800061406000dd
:104e9c000080fb00610060004400dd00a171800017
:104eac000140a10001007000a0718800008080000a
:104ebc000000d100614060000080fb0061006000d8
:104ecc004500dd00a17180000150a10001007000bf
:104edc00a0718800008080004200de00614060000c
:104eec000080fb00610060004600dd00a1718000c5
:104efc000160a10001007000a0718800008080009a
:104f0c004300de00614060000080fb006100600037
:104f1c004700dd00a17180000170a100010070004c
:104f2c00a0718800760007000080fa0000000600df
:104f3c000200fa00004f78001e40780067ff07005f
:104f4c000080fa00000006000000fa00342ea900d0
:104f5c0000000000344ea90000000000346ea800d0
:104f6c000000000000000000000000000000000035
:104f7c00346ea9000080fa00000006000000fa0060
:104f8c00342ea80000000000344ea90000000000e0
:104f9c00346ea800000000000000000000000000bb
:104fac0000000000346ea9000080fa00000006002a
:104fbc000200fa00004f7800114798001e40900044
:104fcc000080fb000080e80080407800600020003a
:104fdc000008dd001e404000abfe07004800070043
:104fec000080fa00000006000200fa00000f7800b2
:104ffc001e0078001040780003f0b70003d0bf000b
:10500c000004e0000400320003d0bf0033ff0700af
:10501c001e0fe800f6ff37000080fa0000000600c3
:10502c000200fa00000f78001e0078001040780093
:10503c0003f0b70003d0bf000004e000040032000e
:10504c0003d0bf0025ff07001e0fe800f6ff370056
:10505c000080fa00000006000400fa0020479800c7
:10506c002e4090000080fb004400de00004f7800d2
:10507c001e407800e94f50000300360071c3b300a6
:10508c001ecf40000200370001c3b3001ecf40000a
:10509c001e40780011ff07002e4090006f4f6000fb
:1050ac001e407800e94f50000300360071c3b30076
:1050bc001ecf40000200370001c3b3001ecf4000da
:1050cc001e40780005ff07000080fa000000060073
:1050dc000200fa000000eb00000f7800020037001d
:1050ec00070007001e0fe800300620009e00780025
:1050fc00808f5000faff34000080fa000000060098
:10510c000400fa000000eb00000f780004003700e8
:10511c001e0090000000e800100798001e0fe80029
:10512c00700c20009e007800808f5000f8ff340037
:10513c000080fa00000006000600fa002007980024
:10514c00ae009000d0cc2c000008b8004309de0063
:10515c00d0cc2c000010b8004308de00ea00b900e7
:10516c00000f5100ae0090004006200000017800b6
:10517c00110009008280d8008000fd000001780039
:10518c00d0cc2c000010b8004308de00ea00b900b7
:10519c0000005100100798001e00780000407800b5
:1051ac000043b00062ff07001e0090000040780032
:1051bc000043b0005eff07000080fa00000006000c
:1051cc000800fa00300798003e009000c200de0094
:1051dc00b04721000008b8000100d100000f780092
:1051ec00be009000d0cc2c000008b8004309de00b3
:1051fc00d0cc2c000010b8004308de00ea00b90047
:10520c000000510010079800be00900040062000de
:10521c0000017800110009008280d8008000fd0098
:10522c0000017800d0cc2c000010b8004308de0040
:10523c00ea00b90000005100200798001e00780019
:10524c00004078000043b00039ff07001e009000ba
:10525c00004078000043b00035ff07002e0090009e
:10526c00004078000043b00031ff07000080fa00d6
:10527c00000006000800fa0020079800310798008b
:10528c002e009000be009000823e20000300200003
:10529c00d8fc0700004f78002e009000be00900054
:1052ac004206200003002000d2fc0700a2002000d0
:1052bc0003002000dffc0700104798002e00900030
:1052cc00be009000a200200003002000c9fc0700d3
:1052dc00a200200003002000d6fc07002047980005
:1052ec002e009000be00900042062000030020001b
:1052fc00d0fc0700a200200003002000cdfc07001a
:10530c003047980001c3b3001ec0400008ff0700df
:10531c001e4090000043b00005ff07002e40900097
:10532c000043b00002ff07003e4090000043b00075
:10533c00fffe07000080fa00000006001800fa00cb
:10534c00200f9800310f98002e089000be08900096
:10535c000271220003002000a6fc0700008fbe0093
:10536c002e089000be089000823e20000300200012
:10537c00a0fc0700a200200003002000adfc0700e9
:10538c0020079800310798002e089000be08900066
:10539c00420620000300200096fc0700a20020001b
:1053ac0003002000a3fc0700400798005107980059
:1053bc002e089000be089000a200200003002000e0
:1053cc008cfc0700a20020000300200099fc0700c1
:1053dc0060079800710798002e089000be08900096
:1053ec00420620000300200092fc0700a2002000cf
:1053fc00030020008ffc0700000f9800110f98008d
:10540c001e007800004078000043b000c8fe070082
:10541c002e009000004078000043b000c4fe07004e
:10542c004e009000004078000043b000c0fe070022
:10543c006e009000004078000043b000bcfe0700f6
:10544c000e089000004078000043b000b8fe070042
:10545c000080fa00000006000000fa00800c20001a
:10546c008e02070010002000a1010700800c200014
:10547c008a02070010002000c7010700800c2000e2
:10548c00860207008000200099010700800c200094
:10549c008202070080002000bf010700800c200062
:1054ac007e0207000000eb00910107009000200035
:1054bc008f010700800c20007802070010002000ec
:1054cc008b0107008000200089010700800c200060
:1054dc0072020700200020008501070070002000e8
:1054ec0083010700800c20006c02070030002000b4
:1054fc007f010700600020007d010700800c200068
:10550c0066020700400020007901070050002000cf
:10551c0077010700800c200060020700400020008b
:10552c009d010700500020009b010700800c20000b
:10553c005a0207003000200097010700600020008d
:10554c0095010700800c2000540207002000200069
:10555c0091010700700020008f010700800c2000d3
:10556c004e020700100020008b0107008000200075
:10557c0089010700800c2000480207000000eb00a6
:10558c00850107009000200083010700800c20009b
:10559c00420207000080fa00000006000000fa003a
:1055ac001173800000202000008060000000e000eb
:1055bc000d003a00408080000000e8004080880028
:1055cc00408080009e010700400620003302070047
:1055dc00000000001173800000202000008060009b
:1055ec000000e000fbff320011738000000420007b
:1055fc00008060000000e0000d003a004080800058
:10560c000000e90040808800408080008c01070089
:10561c0040062000210207000000000011738000ea
:10562c0000042000008060000000e000fbff32005e
:10563c001173800000102000008060000000e0006a
:10564c000d003a00408080006a00400040808800d5
:10565c00408080007a010700400620000f020700fe
:10566c00000000001173800000102000008060001a
:10567c000000e000fbff32001173800000082000e6
:10568c00008060000000e0000d003a0040808000c7
:10569c006a0050004080880040808000680107004c
:1056ac0040062000fd01070000000000117380007f
:1056bc0000082000008060000000e000fbff3200ca
:1056cc000080fa00000006000000fa001173800050
:1056dc0000102000008060000000e0000e003a0086
:1056ec00608080000000e0000300320060808000d9
:1056fc000000e9006080880040062000e7010700f8
:10570c000000000011738000001020000080600079
:10571c000000e000fbff3200117380000008200045
:10572c00008060000000e0000e003a006080800005
:10573c00e50f500003003e00608080000000e80090
:10574c006080880040062000d401070000000000a3
:10575c001173800000082000008060000000e00051
:10576c00fbff320062322a008040eb000040eb006d
:10577c00790107006080800000407800f2322a0036
:10578c0011c0b300740107000080fa00000006008d
:10579c000200fa000000eb00000f78000500370053
:1057ac0060092000bd0107001e007800d000070032
:1057bc001e0fe8001e007800e90f5000f8ff3400bf
:1057cc003000200060808800518080006080800064
:1057dc0000407800230020000101780011c0b300c4
:1057ec00810107000080fa00000006000200fa00a8
:1057fc001173800000102000008060000000e000a9
:10580c0013003a000000eb00000f78000500370091
:10581c0060092000a10107001e007800de000700cf
:10582c001e0fe8001e007800e90f5000f8ff34004e
:10583c00600920009901070000000000117380002e
:10584c0000102000008060000000e000fbff320030
:10585c000080fa00000006000400fa0011738000ba
:10586c0000082000008060000000e00023003a00e7
:10587c0051808000010f7800618080001107980032
:10588c009e007800638f4000300620009e00780058
:10589c00808f500011003e001e0090000000e800b8
:1058ac00100798001e009000e50f50000b003e0002
:1058bc009e007800518088009e00900061808800d6
:1058cc005180800060808000004078002300200020
:1058dc000101780011c0b3004301070060092000ea
:1058ec006e0107000000000011738000000820000a
:1058fc00008060000000e000fbff32000080fa0036
:10590c00000006000400fa0011738000000420005f
:10591c00008060000000e00022003a00518080000e
:10592c00010f780061808000110798009e007800bc
:10593c00648f50001e0078000000e000110032005f
:10594c001e0090000000e900100798001e00900057
:10595c000000e0000b0032009e00780051808800af
:10596c009e009000618088005180800060808000e3
:10597c0000407800230020000101780011c0b30022
:10598c001901070060092000440107000000000015
:10599c001173800000042000008060000000e00013
:1059ac00fbff32000080fa00000006000000fa0045
:1059bc001173800000202000008060000000e000d7
:1059cc0016003a00917180000040200000806000b9
:1059dc000000e00011003a0022332a0011c0b3008d
:1059ec000040eb00dc000700600920002b010700e1
:1059fc000000000011738000002020000080600077
:105a0c000000e00005003a00917180000040200089
:105a1c00008060000000e000f6ff32000080fa0019
:105a2c00000006000000fa000a000700160007003c
:105a3c0030010700c40007002000070054ff0700d6
:105a4c006aff070084ff0700aeff0700d7ff0700bf
:105a5c00fbff37000000fa00a0032000303a88005a
:105a6c00213a8000f0f32f0000806000203a88007b
:105a7c00213a800000fe2f0000806000203a880050
:105a8c000080fa00000006000000fa00312ea90088
:105a9c00310ea90011aea900118ea900116ea9003a
:105aac00114ea900112ea900110ea90010eea9008b
:105abc0010cea9000080fa00000006000000fa00d9
:105acc00352ea800350ea80015aea800158ea8001e
:105adc00156ea800154ea800152ea800150ea800ce
:105aec0014eea80014cea8000080fa0000000600f6
:105afc000200fa00000f78001e0078008000eb0016
:105b0c009200200003002000820f5000838f580069
:105b1c001f003e0000060100090037000a00370094
:105b2c000b0037000c0037000d0037000e0037005b
:105b3c000f0037001000370011003700120037003b
:105b4c00352ea9001200370014cea9001000370022
:105b5c0014eea9000e003700150ea9000c0037003a
:105b6c00152ea9000a003700154ea90008003700b1
:105b7c00156ea90006003700158ea9000400370029
:105b8c0015aea90002003700350ea9000000000078
:105b9c000080fa00000006000200fa00000f7800f6
:105bac001e0078008000eb00920020000300200013
:105bbc00820f5000838f58001f003e00000601002a
:105bcc00090037000a0037000b0037000c003700c3
:105bdc000d0037000e0037000f00370010003700a3
:105bec001100370012003700352ea80012003700c4
:105bfc0014cea8001000370014eea8000e003700d9
:105c0c00150ea8000c003700152ea8000a0037004e
:105c1c00154ea80008003700156ea80006003700c6
:105c2c00158ea8000400370015aea800020037003e
:105c3c00350ea800000000000080fa0000000600ed
:105c4c000800fa00300798003e019000d0cc2c00e0
:105c5c000010b8004308de00ea00b9000000510053
:105c6c00000f78001e007800be009000808050006d
:105c7c004006200000017800110009008280d80045
:105c8c008000fd0080007800d0cc2c000008b8000b
:105c9c004308de00100798009e00900060ff2f0064
:105cac008088b900800078003e0090008080400021
:105cbc001e00780080805000803e2000000178009b
:105ccc00110009008280d8008000fd00c200de00b7
:105cdc00b04721000008b8000100d100200798004f
:105cec002e00900082ff0700800c20006b00070044
:105cfc002e009000a8ff0700800c20006700070012
:105d0c001e0090007aff0700800c20006300070043
:105d1c001e009000a0ff0700800c20005f00070011
:105d2c001e00780072ff0700800c20005b0007004b
:105d3c001e00780098ff0700800c20005700070019
:105d4c000080fa00000006000000fa0048fa070084
:105d5c000080fa00000006000400fa00004f7800f2
:105d6c0011479800120798009e4090000040eb00ed
:105d7c008ffc070040332a009bfc07009e409000dc
:105d8c001e4078008afc07001e00900096fc07005d
:105d9c000080fa00000006000800fa0020079800b6
:105dac0031079800ae0090001107980010002000f9
:105dbc00000f7800050037009e0090002e00900028
:105dcc008088b900100798001e0fe8003e00900074
:105ddc009e007800808f5000f7ff39001e00900065
:105dec000080fa00000006000a00fa004047980004
:105dfc00514798003207980043079800de40900006
:105e0c000040eb006afc070040332a0076fc0700d8
:105e1c00de4090004e40900065fc07000000eb0057
:105e2c00000f7800170037001e007800ce0090009d
:105e3c00008050000000e90080007800a0002000e5
:105e4c00d5ff0700be00900000017800110009008a
:105e5c008280d80000017800d0cc2c000010b80053
:105e6c004308de00ea00b90000005100100798005a
:105e7c001e009000004078000043b0002cfc07008e
:105e8c001e0fe8009e0078004e009000808f50009e
:105e9c00e5ff39000080fa00000006000600fa0059
:105eac00200798000000eb00000f78000b00370073
:105ebc000000eb0010079800030037001e00900054
:105ecc000000e800100798009e0090008038210028
:105edc00808f5000f9ff36001e0fe8002e00900056
:105eec009e007800808f5000f1ff36000080fa0091
:105efc00000006000000fa00612ea8006f2ea90019
:105f0c0060cea8006ecea900610ea8006f0ea9008d
:105f1c0060eea8006eeea900408ea8004e8ea9007f
:0c5f2c00314ea8000080fa0000000600c2
:020000040000fa
:105f380000100000080000008000000008100000a9
:105f480004000000820000001200020000000000af
:105f58000c1000000200000080000000000000009b
:020000040000fa
:0200000401f009
:04000c00830000006d
:020000040000fa
:0200000401f009
:0400100025000000c7
:020000040000fa
:0200000401f009
:040014007f00000069
:00000001FF
