:020000040000fa
:080000000022040000000000d2
:020000040000fa
:1000080004200000082000000c2000001020000040
:1000180014200000182000001c200000e02100002f
:100028002020000024200000282000002c200000b0
:100038003020000034200000382000003c20000060
:100048004020000044200000482000004c20000010
:100058005020000054200000582000005c200000c0
:100068006020000064200000682000006c20000070
:100078007020000074200000782000007c20000020
:100088008020000084200000882000008c200000d0
:100098009020000094200000982000009c20000080
:1000a800a0200000a4200000a8200000ac20000030
:1000b800b0200000b4200000b8200000bc200000e0
:1000c800c0200000c4200000c8200000cc20000090
:1000d800d0200000d4200000d8200000dc20000040
:1000e800e0200000e4200000e8200000ec200000f0
:1000f800f0200000f4200000f8200000fc200000a0
:100108000021000004210000082100000c2100004b
:10011800102100001421000018210000e021000037
:10012800e02100001c210000202100002421000003
:10013800282100002c21000030210000342100007b
:10014800e021000038210000e02100003c210000ef
:10015800e0210000e0210000e0210000e021000093
:10016800e021000040210000442100004821000057
:10017800e0210000e02100004c2100005021000097
:1001880054210000582100005c210000602100007b
:1001980064210000682100006c210000702100002b
:1001a8007421000078210000e0210000e021000017
:1001b800e0210000e0210000e0210000e021000033
:1001c800e0210000e0210000e0210000e021000023
:1001d800e0210000e0210000e0210000e021000013
:1001e800e0210000e0210000e0210000e021000003
:1001f800e0210000e02100007c21000080210000b7
:1002080084210000882100008c210000902100003a
:1002180094210000982100009c210000a0210000ea
:10022800a4210000a8210000ac210000b02100009a
:10023800b4210000e0210000b8210000bc2100002a
:10024800c0210000c4210000c8210000cc2100000a
:10025800d0210000d4210000d8210000dc210000ba
:020000040000fa
:104000000022040000000000fe2204000000000066
:10401000fe22040000000000fe2204000000000058
:10402000fe22040000000000fe2204000000000048
:10403000fe22040000000000fe2204000000000038
:10404000fe22040000000000fe2204000000000028
:10405000fe22040000000000fe2204000000000018
:10406000fe22040000000000fe2204000000000008
:10407000fe22040000000000fe22040000000000f8
:10408000fe22040000000000fe22040000000000e8
:10409000fe22040000000000fe22040000000000d8
:1040a000fe22040000000000fe22040000000000c8
:1040b000fe22040000000000fe22040000000000b8
:1040c000fe22040000000000fe22040000000000a8
:1040d000fe22040000000000fe2204000000000098
:1040e000fe22040000000000fe2204000000000088
:1040f000fe22040000000000fe2204000000000078
:10410000fe22040000000000fe2204000000000067
:10411000fe22040000000000fe2204000000000057
:10412000fe22040000000000fe2204000000000047
:10413000fe22040000000000fe2204000000000037
:10414000fe22040000000000fe2204000000000027
:10415000fe22040000000000fe2204000000000017
:10416000fe22040000000000fe2204000000000007
:10417000fe22040000000000fe22040000000000f7
:10418000fe22040000000000fe22040000000000e7
:10419000fe22040000000000fe22040000000000d7
:1041a000fe22040000000000fe22040000000000c7
:1041b000fe22040000000000fe22040000000000b7
:1041c000fe22040000000000fe22040000000000a7
:1041d000fe22040000000000fe2204000000000097
:1041e000fe22040000000000fe2204000000000087
:1041f000fe22040000000000fe2204000000000077
:10420000fe22040000000000fe2204000000000066
:10421000fe22040000000000fe2204000000000056
:10422000fe22040000000000fe2204000000000046
:10423000fe22040000000000fe2204000000000036
:10424000fe22040000000000fe2204000000000026
:10425000fe22040000000000fe2204000000000016
:10426000fe22040000000000fe2204000000000006
:10427000fe22040000000000fe22040000000000f6
:10428000fe22040000000000fe22040000000000e6
:10429000fe22040000000000fe22040000000000d6
:1042a000fe22040000000000fe22040000000000c6
:1042b000fe22040000000000fe22040000000000b6
:1042c000fe22040000000000fe22040000000000a6
:1042d000fe22040000000000fe2204000000000096
:1042e000fe22040000000000fe2204000000000086
:1042f000fe22040000000000fe2204000000000076
:10430000fe22040000000000fe2204000000000065
:10431000fe22040000000000fe2204000000000055
:10432000fe22040000000000fe2204000000000045
:10433000fe22040000000000fe2204000000000035
:10434000fe22040000000000fe2204000000000025
:10435000fe22040000000000fe2204000000000015
:10436000fe22040000000000fe2204000000000005
:10437000fe22040000000000fe22040000000000f5
:10438000fe22040000000000fe22040000000000e5
:10439000fe22040000000000fe22040000000000d5
:1043a000fe22040000000000fe22040000000000c5
:1043b000fe22040000000000fe22040000000000b5
:0843c000fe22040000000000d1
:020000040000fa
:104400004f0521000eff27000e018800000000006c
:10441000000020000000e000020032000001200047
:104420002002880014000700970007000000e00049
:1044300003003a0080f02300010020000200370052
:104440000000200001002000810f700001003200f8
:104450000f000700000020000000e0000200320012
:1044600000000200000000000e3d020000000000fd
:104470000040da000000fe00a00120000000e00083
:104480000200320000202000900188000000060099
:10449000a1028800800478000000eb001f003700b4
:1044a000e284440054a0b4009905ba00e2844400b8
:1044b00054a0b4009906ba00e284440054a0b400a9
:1044c0000006eb00476fde00fd07b200ae0188007a
:1044d000636ce10003003a000ad801000000eb0021
:1044e0000e003700606ce10008003a00004deb0060
:1044f0000a05e800020039003420ec000af0a000b0
:104500008b05e900f9ff3e00040037006168e10017
:10451000010032000086eb000b00070019c7ba004b
:104520000e04e0001905ba0003003a000a00e0009a
:10453000dbff3a0000000600fe07b200ae02880072
:104540008a047800f5ff37000cd0a300e20f4d007d
:104550001c00390089027800354dba000a05e800d0
:10456000020039003420ec000af0a0008b05e900bd
:104570000f003200254dba000a05e800020039009c
:104580003420ec000af0a0008b05e900080032009e
:104590000c00e0000600320015cdba000a05e80064
:1045a000020039003420ec000af0a0008b05e9007d
:1045b0008984e80054a0b4000b00e000e2ff3a0058
:1045c000000006009902ba00055d78008b05e9003d
:1045d000f7ff3200c82ade00055d78008b05e90090
:1045e000f3ff32000c00e000f1ff320019ddba00e9
:1045f000eeff3700b6280400000000000040da009b
:104600000000fe00889fbe00800478009082800039
:104610000000e00004003a000e0007000084eb00f8
:104620000000e00008003500988280000900e000ea
:104630000500320009004400060007000000e00009
:1046400001003d000084eb00080078004f04be002c
:1046500000000600800078000100e00003003a003e
:104660000000200090828800000005000080eb0020
:1046700002002000828f500002003e0091828800dc
:104680000000eb00000006000000050003f0a2009f
:10469000889fbe008a9fbe008c1f7800c000070064
:1046a000c70033006450e1004f0032006420e10095
:1046b0005200320003826c0007003b000905d00065
:1046c0000306d000820f54000c065d000200390082
:1046d00002003200890178000306780085825500c7
:1046e00004003d000003fd008103fd008502ea0097
:1046f0008b854200840f720002003b0060001000b6
:10470000e08018006011b8000005eb007a28e10095
:104710000a00390006007800c75ddd00f707b20027
:10472000878075002d003700828171000a017800b2
:10473000610560008180d1000080d3008502e9001e
:10474000f9ff3b00060440008784480002003b005c
:1047500060041400e0841c000988a30007003200f4
:104760008a81710082817100610164008904d10035
:104770000884d3008b05e800170037000978a300f0
:1047800013003a000b00e000130034008b05e90031
:104790000804440089844c000a4474000978a3008a
:1047a0000d003a000b00e000070034008b05e90023
:1047b0000804440089844c0001003a000b002000ea
:1047c0000978a300f7ff32000001eb000200370078
:1047d000828171000a017800360007000cf0a70002
:1047e00001f0a0007f0037006420e10002003a00e1
:1047f000838f6c007f0033000801be000200be0002
:10480000780037000001be00500007000470a700c8
:1048100003f0a1006509b100160032000d0035005b
:104820006828e10006003500f0ff2f00f1ff2700a7
:104830000300e00013003b00010028000000050019
:1048400000004000818048008502e900fcff3a003a
:1048500008003700f88f420002003c008000eb00a7
:10486000000005008100d1000080d3008502e8002f
:10487000fcff3a000300e00002003b006000100073
:10488000e0801800000006004f89de0082017800f9
:10489000750137000001eb004a01070004003200f7
:1048a0000200200003f8230001f0a70077ff0700b3
:1048b0000000060081002000618055000b003d00d3
:1048c0000b00200061fe2f000100e1001d003400fc
:1048d00082817100610164008904d1000884d300e1
:1048e0000000e800faff3a00710020006100640057
:1048f00003007000020060000900320061044400ff
:10490000e0844c000988a500050032008b05e80012
:104910006808e10002003a008904d1000884d3004d
:10492000f20f20000258e10005003d00c75ddd00e8
:10493000f907b200898075000800780000000600c1
:104940000bf827008b00780000000500c70ade0086
:10495000f107b200f50fb20008003200e1cf4200cb
:10496000020032000170a00024000500810f7000d9
:10497000010032000408050044000500810f7000aa
:1049800002003a00140005008502e9000000400022
:1049900081c04800fcff3b000170a000240005001e
:1049a0000004be00e9ff07000003be000405be00ce
:1049b0000200be00e5ff0700844f750000000600fe
:1049c0000200be006450e100050036006420e100f2
:1049d000020036000968a30001003a000800be008a
:1049e0000160a0004f0678004f05be004f04be00d6
:1049f00000000600f0ff2f00f1ff2700f9ff37004d
:104a00000300070092bd2500e3ed230057003700a7
:104a1000889fbe008a9fbe008c9fbe009a00070040
:104a2000850478000005be006420e10049003e00d6
:104a30006220e10003003200090035000bf8a300fa
:104a4000440032000bf8a3000800320010022000de
:104a500070808800f0ff2f00f1ff27003d00370035
:104a600001f82f00000020003a0037003d00070049
:104a700006ff07000006be000a00be00324f2000fd
:104a800053f32300f6000700060034000c00be00bc
:104a900034000700fdfe07000006be000a00be004d
:104aa000020037008904e9000c00be002d00070059
:104ab0002e0007002b000700f5fe07000001be00d6
:104ac0000c00be007d0007000005be000001be0016
:104ad000260007000006be00a2f32300430d2c00b1
:104ae000ebfe0700809fbe000c00be00d2e3270053
:104af000d3f02b001d0007004f01be006f00070020
:104b00000006be000a01be00180007000a01be0030
:104b1000dffe07000006be006148b9005aff07002b
:104b20000005be0032082800e3952b000f000700a7
:104b30000c01be00d6fe07000006be000a00be0043
:104b40000200280013f32300080007000c01be0038
:104b5000cffe07004f06be004f05be004f04be004b
:104b60000000060003f0230002000500889fbe003d
:104b70008a9fbe008c1f780089ff070090ff3300da
:104b800003866c006450e100240032006420e100e0
:104b9000270032006150e100220032006120e10074
:104ba000210032008b854200eb07b1000134b800d0
:104bb000003ab8000804420089844a00013ab8006b
:104bc0000030b8008880400009014a00040033002a
:104bd0000000400081804800020149008b05e90087
:104be000c909dd00830170000100320013002000bc
:104bf000c814de004814dd004709de001200b200d0
:104c0000c808de00088470002aff070001f0a10038
:104c10000cf0a70001f0a00072ff37006120e10056
:104c200074ff32000801be000200be00f7ff37002b
:104c30006150e100fcff3a006eff37006022b800cf
:104c4000060220000000d0008180d2000482d20041
:104c50008582d2000000a0000202520083825a0026
:104c6000030031000202420083824a000000a100da
:104c70000603e900f3ff3a0000000600efff07001b
:104c80000400be00000006000003be002fff070066
:104c90006220e100020032000600be0005000500af
:104ca000e507b100f107b20004f023008480700032
:104cb00007f0a70001f0a00024000500889fbe00b7
:104cc0008a9fbe008c1f780035ff07003cff330031
:104cd00003866c006450e1002e0032006420e10085
:104ce000330032006150e1002f0032006120e1000a
:104cf0003100320085855500eb07b0000900200027
:104d000008042000050037000804440089844c0092
:104d10000a0031000603430087834b000001530063
:104d200081815b00f8ff33000203be000800a00091
:104d30000804440089844c00f6ff3900c639dd00c0
:104d40008301730001003200130020008904d100a8
:104d50000884d3000998a300050032000800a700ca
:104d60000300a0008904d1000884d3008b05e8006b
:104d70008904d1000884d3000001eb000281d20035
:104d8000ccfe070001f0a1000cf0a70001f0a0008c
:104d900014ff37006420e10016ff32000801be0056
:104da0000200be00f7ff37006120e10011ff320072
:104db0006000b800f3ff37000000200001f8270072
:104dc000f0ff3700889fbe008a9fbe000003be0030
:104dd000defe070085057800828152000200200077
:104de0006220e10004003a00f307b100040035003e
:104df0007718e100040035000600be0014003700fb
:104e00006000b8000f003700f50f2000faff2f00f8
:104e10008502d1000a85d3008301e900fcff3b0035
:104e20008184620000046500890f7400f2ff320083
:104e30008582ea000a85ea00818462000004650038
:104e40009cfe070007f0a70001f0a0000081eb0026
:104e50000200e0004f05be004f04be000000060047
:104e6000f4ff2f003f003700881f7800030478000c
:104e70000300e00007003d0060001000e080180023
:104e800060011900e081190002003b0001f02d00d3
:104e9000030037000400070008f0a70001f0a0009d
:104ea0004f04780000000600889fbe008a9fbe0065
:104eb000008270000402710004827100260032003a
:104ec0000004be000200be006011b8006b092000a3
:104ed000950220000182cf000a0039000541b1008f
:104ee0000082cf00070039000541b1000982cf00e0
:104ef000040039000541b1000882cf0001003900eb
:104f00000541b10005425200120032000a003b0088
:104f100082817100610164008100d1000080d300b2
:104f20008984d3000884d3008b05e8000442e8009c
:104f3000f7ff3a00070037000804440089844c005a
:104f400000004800818048008b05e9000442e90028
:104f5000f9ff3a0057fe07004f05be004f04be00a0
:104f600000000600889fbe008a9fbe00841f780054
:104f70008bfe07004f00780011003300f0ff2f0078
:104f8000838f6c0006003b00040565000a00a70043
:104f90000800370009f0a6001000200008003700c4
:104fa000820f5400838f5c00030039001000200042
:104fb00001003e000000200009f0a7000000ea0008
:104fc0004f05be004f04be000000e00000000600d8
:104fd000889fbe0000047800618280000100e0002c
:104fe00002003200010078000d003700718280005d
:104ff000e004210004003700910f54002500360022
:105000000180e800910090000100e000faff3a0002
:1050100010003700920f54001e0036000280e80096
:10502000100178000200e000faff3a001101780058
:1050300071828000e004210004003700910f5400c9
:10504000140036000180e80091009000828f50002b
:10505000faff3a0089828000888f540001003100f5
:105060008804780009007800360007000000e0009e
:1050700004003a00888f5400050032008904d100f2
:10508000f5ff37000918780022020700d2ff370029
:105090000000eb004f04be0000000600881f7800ef
:1050a000630440000800a1008000eb00800f540062
:1050b00021003600e30f540001003e0048002000ac
:1050c00008007800c2ff07008000eb000000e0004d
:1050d000190032009000780091017800648151003d
:1050e000880f510003003100110190000208780080
:1050f0000700370008814000020878009101900005
:105100001301980010017800110914008808780034
:10511000100178000000eb000200e0000400320003
:10512000920190000300e000010032000280e800dc
:10513000608288008180e800010078004f047800d8
:1051400000000600800078000000eb000100e00095
:1051500005003400010078002afd0700e10f40003f
:1051600001003a000000eb0000000600881f7800f4
:1051700002047800080178001802070008004000c7
:105180004f047800000006000000fa00881f780035
:1051900000047800ea8157003fb997008800780042
:1051a000608b2200070007000000e00002003500cd
:1051b00000044400004ceb004f0478000080fa002b
:1051c000000006006200fa00889fbe008a1f780077
:1051d00000057800810478000204780083007800dc
:1051e00080f92f000f004000080407009a979f00e5
:1051f000a9979f000000eb00b09f9f001885fb005f
:105200008a04fb000a05ea004f55de005002200028
:10521000808f54000d003200e10f55000b003a0062
:105220000a017800880078002f9097009f919700de
:1052300003000100a0979f000000e0008e003200f4
:105240003f9897000000e800b09f9f000a044400c8
:1052500050022000808f5400040032000900e0005a
:10526000e6ff3a003f989700840037000000eb000b
:10527000909f9f00809f9f00f0979f00e0979f0066
:10528000d0979f00c0979f0007003700610421005e
:105290000100500000004000a10321008080400078
:1052a0005f98970011007000d09f9f0088047800dd
:1052b00009047800384578008a00fb00600421006a
:1052c000cd0107000000e000f0ff3a00a1c2b300ea
:1052d000814f55000e003a00cf8897000180e90009
:1052e000c08f9f0010007800c09f9f000000e0006a
:1052f00005003d000000ea00c09f9f005f989700f6
:105300000020a000d09f9f000904e8000f00370094
:10531000c09f9f000000eb0005003700f2ff270050
:10532000820f500002003200ea00b9000080400005
:105330000904780088047800b900fb000103b1007b
:10534000e98f5000f5ff3600c09f9f00e0c2b30018
:10535000984f1000020032000080eb001900370067
:10536000a0c2b300d84f100007003a00cf889700c2
:105370000180e900c08f9f0010007800a09f9f006f
:105380000804e800100037000000eb00a09f9f0019
:105390008800780005003700f3ff2700830f5000d6
:1053a00002003200ea00b900000041000104780068
:1053b000880078003101fb000203b100e90f5100c1
:1053c000f5ff3600a09f9f00984478008900fb00fd
:1053d00020032100880107000000e00002003200e5
:1053e0000804e800010037008044eb00c97f9f00fb
:1053f00080c6b30080cf540004003a0098cf140058
:105400000a003a006640500006003700c0c6b300ec
:1054100080cf540005003a0098cf140003003a00f2
:1054200065404000c07f9f000804e8001801fb00b1
:10543000e3fb2f008f81410081f92f008f80400016
:10544000a0f92f000f004000100007000000e0004e
:1054500009003a00e1fb2f008f804000a0f92f00e7
:105460000f004000ad0207000000e0000200350020
:105470000804e80061ff37000080eb004f0578006a
:105480004f04be000080fa0000000600889fbe00a6
:105490008a9fbe00e4c6b300844f5100ce003200a4
:1054a00010003c006b425200844f51001800320043
:1054b00005003c0054c2b300844f51000601320085
:1054c00084c5b3000f00370044c6b300844f5100b9
:1054d0001500320065424200844f510001013a003c
:1054e0001100370004c7b300844f5100ed003200b3
:1054f0005f00350065424200844f51005c0032007d
:1055000063424200844f5100f6003a0058003700d1
:105510001181e90082087800f0009000818141004b
:1055200092497800f500370020629000c5c6b300ac
:10553000854f520008003a009102780064825200c0
:105540008408780094029000140278004fabde00cb
:10555000860378001600370015c7b300854f520048
:1055600003003a0011047800680254000500370077
:10557000a5c6b300854f520008003a009104780098
:1055800068825400840878009402900024039000fc
:10559000b403900014027800050037001182e9007e
:1055a0008408780014027800cfa2de00612bb900d5
:1055b0000498be000690be00a060900088c6b300ac
:1055c00088cf50000d00320028c6b30088cf5000ad
:1055d00004003a000402fb00cfa2de00612bb900f8
:1055e0000800370048c7b30088cf500003003200de
:1055f0006644440088cf500004003a00cfa2de0089
:10560000612bb9000498be000690be00100278001d
:105610009002900020039000b0039000f0009000f2
:10562000e00f5200e08f5a00e00f5b00e08f5b005c
:1056300003003d0001824100d5c2b3000a003700db
:10564000001290000418a300030032000182410000
:10565000b5c2b300040037000408a30059003200ab
:105660000182410005c2b300054a780053003700ab
:1056700020629000c5c6b300854f520009003a0071
:10568000110578006402550084087800140478003d
:10569000940490006055b8000802be000a03be00e2
:1056a0001600370015c7b300854f520003003a00bb
:1056b000910478006882540005003700a5c6b30045
:1056c000854f520008003a00110578006802550025
:1056d000840878009402900024039000b4039000a2
:1056e00014027800050037001182e9008408780070
:1056f000140278008002eb006033b8000498be000a
:105700000690be00a060900088c6b30088cf50000d
:105710000d00320028c6b30088cf500004003a00c4
:105720000482fb008002eb006033b8000800370001
:1057300048c7b30088cf50000300320066444400dd
:1057400088cf500004003a008002eb006033b800bc
:105750000498be000690be00801090000138a3009f
:105760001800320010027800900290002003900090
:10577000b0039000e00f5200e08f5a00e00f5b0092
:10578000e08f5b000f00320081c7b300814f5100f2
:105790000300320081c5b300814f510009003a0077
:1057a000f00090000182410005c3b300054a780073
:1057b0008100e80001824100024a78008100e8008f
:1057c00071009800f0009000818141006300980012
:1057d000824078003e003700a0619000c4c6b3004c
:1057e0001181e90084cf5100220032000a003c0000
:1057f0006442520084cf51002500320004c2e80008
:1058000084cf5100130032006842520084cf51000f
:105810001e003a000a00370044c7b30084cf51008d
:105820001b0032006642420084cf51001800320053
:105830006942520084cf510014003a00050037003d
:1058400082087800920078004058900080487800e4
:105850002c0037008208780092007800600a9000df
:10586000cfa2de00612bb9008498be008690be00f6
:1058700024003700820878009200780060099000c8
:10588000cf91de008288be001e0037001181e90042
:105890008208780092007800600890008008780004
:1058a000180037001181e9008208780012027800a0
:1058b000cfa2de00612bb9000498be000690be00a6
:1058c000f0009000818141006300980081c7b3001f
:1058d000550007000b003700f00090008181410067
:1058e00005003700f0009000818141000204e000d3
:1058f00001003a0052c2b300824978008100e800fa
:10590000710098000000eb004f05be004f04be0080
:10591000000006000000e0002f003200c001780007
:10592000e38f51002c0036000308a3002a003a0040
:10593000718280000100e00002003200810f5000ff
:1059400004003100110098007082880016003700b2
:1059500082007800110190000200e0000200320095
:10596000800f5100faff3900110278008482400054
:10597000850f500018003900808f520003003a0054
:105980008308420001007800070037000200e000b1
:105990000300320083014000830f51000e003900e4
:1059a0001200980090009800900090000100e00024
:1059b0000900320010014000828f500006003a00ba
:1059c000c20421000009eb00100178001108410019
:1059d00091009000110098000000060080017800fe
:1059e00002003700b15978000201e9000200e0002e
:1059f000fcff3a0000000600020037000304e0004c
:105a0000060032000001780002007800b041780002
:105a100081cf5100f9ff3a00010037000001eb008f
:105a20000200780000000600fc874700889fbe0047
:105a30008a9fbe008c9fbe008e1f780000067800f3
:105a400080c5b30080cf50000a003200774040008c
:105a500080cf50000a0032006940400080cf5000e3
:105a60000b0032001002210080bf9f00ae0020001a
:105a70000a0037000201210082bf9f0006003700a4
:105a80001302210083bf9f008e0020000300370017
:105a90001402210084bf9f000e0120001c02780028
:105aa0009c0290002c039000bc0390000605be00f1
:105ab0000404be0040c6b30080cf50000300320093
:105ac0006540400080cf50000b003a00e00f5200cc
:105ad000e08f5a00e00f5b00e08f5b0006003d00a6
:105ae0006000b8006011b8000404500085845800bc
:105af0000605590087855900e80f57000400320059
:105b000040002000f00f57003c003a000100370031
:105b100030002000e00f5400e08f5c00e00f5d00db
:105b2000e08f5d0004003a00dc0890008d01200049
:105b30000100e000070032008e00e900888060006c
:105b40008fba97008180420091407800f1ef9f006a
:105b50007d012000800078008100e900050033000d
:105b60008b05d1000a85d3008984d3000884d30033
:105b7000f9ff3700089ebe000a96be0013003700ea
:105b80008d06e9008e00e900848060000fb997005f
:105b9000810041001141780083fd2f008d8141007b
:105ba00082f77900800178008301e9000500330065
:105bb0008783d1000683d3008582d3000482d3007b
:105bc000f9ff3700049ebe000696be001c02780056
:105bd0009c0290002c039000bc039000e00f520048
:105be000e08f5a00e00f5b00e08f5b009300340011
:105bf0000d00e000e2ff3c00900037002c609000b8
:105c000081c6b300814f50000b00320006003c00fb
:105c10000004e00008003200e6c05000814f500050
:105c200052003a0004003700c1c6b300814f500053
:105c30004e003a00230037000800e00004003a005c
:105c40005c0890008d0120000000e0000700320099
:105c5000110009000e84d8000fba9700010042001d
:105c600010407800f0ef9f007d0120001100090036
:105c70000e84d8000b003700110009000e04d80074
:105c80008d06e9008e81b900020454008fb8970098
:105c9000088440009841780082fd2f000d014100ea
:105ca00083777900000478000800e00002003200e9
:105cb0000d00e000f0ff3c00cfc4de00614db900f4
:105cc00027003700e00f5400e08f5c0004003a002a
:105cd0005c0890008d0120000000e0000800320008
:105ce0006171b9000800be00e4fb07000fba97001d
:105cf0008000420091407800f1ef9f007d0120007c
:105d00006171b9000800be00ccfb07000c00370031
:105d10006171b9000800be003e0107008d06e90070
:105d200080f1b900020454008fba97000884420041
:105d30009841780082fd2f000d01410083777900a2
:105d40000004be00e00f5000e08f58000200320057
:105d50000d00e000eeff3c004fcdde008a0578002c
:105d6000089ebe000a96be0034003700e00f5400c3
:105d7000e08f5c00e00f5d00e08f5d0004003a0002
:105d80005c0890008d0120000000e0000a00320055
:105d90006172b900612bb9000800be000a01be00a3
:105da000cd0107000fba97008000420091407800b3
:105db000f1ef9f007d0120006172b900612bb900f5
:105dc0000800be000a01be00bc0107000e0037003b
:105dd0006172b900612bb9000800be000a01be0063
:105de000c10107008d06e90080f2b90004045400e7
:105df0008fba9700088442009842780084fd2f00f3
:105e00000d02420085777a00009ebe000296be0019
:105e10001c0478009c0490002c059000bc059000a8
:105e2000e00f5400e08f5c00e00f5d00e08f5d004c
:105e3000020034000d00e000e5ff3c00e80f5700d1
:105e400010003a000c1090000038a3000d00320042
:105e5000f78f560006003e0080fd2f000d00400029
:105e6000ef40780000c3b30080cf5000050032003f
:105e700002c3b30071fd2f008d8040008d06e90044
:105e800082f7780078811600120e98006c0090005e
:105e900083fd2f008f8141008d804100cffe0700e0
:105ea0001c089000dc089000810f500006003d00a7
:105eb00000805000000e98000c1090000040a100df
:105ec000001698000f0037000100e0000d003d00b3
:105ed0008c109000f4806000f08f500009003a00b0
:105ee0007c099000fc009000810051000c0990009a
:105ef00082805000008050004240a9000100340020
:105f0000000e98004f0778004f06be004f05be00f8
:105f10004f04be00cf01b100000006000400fa00eb
:105f2000889fbe008a9fbe008c1f78000004780006
:105f300001067800f80d90007800900080855500eb
:105f4000080890008085550018089000808555004d
:105f500028089000808555003808900080855500fd
:105f600048089000808555000002220090bf9f00e5
:105f700000032300a0bf9f00081090000028a3008a
:105f800015003a000b00e000130034000b05780008
:105f90008a047800e20f5500010036002900200035
:105fa000c801900009017800ee8057005800900069
:105fb00003000100500498000000e0008c00320053
:105fc0006808900009004000600c98000905550021
:105fd0004240a900eeff3c00780190000200e00082
:105fe0000c003400c80190008c007800580090002c
:105ff00003000100500498008080eb000000e000e6
:106000007c003200e808900078009000008040009a
:10601000600c9800880c90000900e000110034002a
:1060200009057800e28f5400010036002a002000a4
:10603000c80190000a017800ec80570058009000d9
:1060400003000100500498000000e00068003200e6
:10605000680890000a004000600c98008a84540090
:10606000edff3700180990000200e0000c0034003a
:10607000c8019000e8009000580090000300010063
:10608000500498008080eb000000e00059003200ce
:10609000e80890001808900000804000600c98000c
:1060a000a80c90000900e0001100340009057800f8
:1060b000e28f5400010036002a002000c801900041
:1060c0000a017800ec80570058009000030001009e
:1060d000500498000000e00045003200680890007d
:1060e0000a004000600c98008a845400edff3700dd
:1060f000380990000200e0000e003400e800900033
:106100001808900080804000c8019000580090005e
:1061100003000100500498008080eb000000e000c4
:1061200034003200e80890003808900000804000f9
:10613000600c9800c80c90000900e00011003400c9
:1061400009057800e28f5400010036002a00200083
:10615000c80190000a017800ec80570058009000b8
:1061600003000100500498000000e000200032000d
:10617000680890000a004000600c98008a8454006f
:10618000edff3700081090008000eb000028a3000e
:10619000180032000b00e000160034008b04780079
:1061a00009057800e28f5400010036002a00200023
:1061b000c80190000a017800ee8057005800900056
:1061c00003000100500498000000e00008003200c5
:1061d000680890000a004000600c98008a8454000f
:1061e0004240a900eeff3c008000eb0001003700b8
:1061f0008080eb00010078004f0678004f05be005c
:106200004f04be000080fa0000000600010878007c
:1062100000000600839f68000100e00002003d00ce
:1062200060001000e08018000300e00002003d0064
:1062300060011100e081190080fa07004f00e000c2
:1062400002003b0060001000e08018000000060023
:10625000889fbe008a9fbe0030044200b0844a007e
:1062600030054b0090854b006000b1000898be00df
:106270000a90be000440e10005c8e10006d0e1003c
:1062800007d8e10002003100680040001008e80073
:106290004f05be004f04be0000000600889fbe00f0
:1062a0008a9fbe00100478009004900020059000a2
:1062b000b00590000418540005985c0006185d00b5
:1062c00007985d00110020000440e10005c8e100ce
:1062d00006d0e10007d8e100010039008000eb00a2
:1062e000108810004f05be004f04be0000000600dd
:1062f0001200fa00889fbe008a9fbe008c9fbe00dd
:10630000e0b79f00f1b79f0082bf9f0093bf9f003f
:106310000605be000404be000000eb00d0b79f00dd
:10632000c0b79f00b0b79f00a0b79f0090b79f0075
:106330000006eb005fb19700cfb0970082014100eb
:106340003fb097000200e00004003d003700070066
:106350007e805700beff07000300370033000700b0
:106360007e805700cdff0700dfb697000d00e000ec
:106370000c0035006fb29700ffb297000fbb97007b
:106380009fbb970010002000010020006011b800a2
:106390000002720081827200020373008383730023
:1063a0001b0007000c06e80001042000810f5600c6
:1063b000e0ff3a000d00e00004003d000802be00ce
:1063c0000a03be007e805700a1ff07005fa8970068
:1063d0000000e00005003a001fb29700afb297003e
:1063e0003fb39700cfb39700090007006fb0970045
:1063f000ffb097000fb997009fb997004f06be00f6
:106400004f05be004f04be000080fa0000000600e9
:106410000100070000000600a4b79f00b5b79f0069
:10642000c6b79f00d7b79f00000006004f09de00e7
:1064300082817100b3b79f004f01de008180400070
:1064400082807000a1b79f008fb097004f09de00d7
:10645000000040000200700090b79f007fa89700e6
:106460004f01de00818040008280700081b79f0074
:106470000d0007004f3ade000000400004007000ed
:10648000f0af9f00080007000402420085824a0026
:1064900006034b0087834b00dfff07000802be00a6
:1064a0000a03be00000006002fb29700bfb297009b
:1064b0004fb39700dfb3970000000600881f7800f5
:1064c00018002000881f780089ff07008f87e900e7
:1064d0004f04780000000600801feb0084ff0700d7
:1064e0008f87e90000000600889fbe008a9fbe00db
:1064f000e00f5000e08f5800e00f5900e08f590086
:106500000c003d006044b8006055b8000000540025
:1065100081805c0002015d0083815d001800200025
:106520001500070008003d00180007000004eb00fc
:10653000050037000004eb000f00070002003d00db
:106540001200070018002000dcff07000800e00030
:10655000060032006022b8006033b800000052002c
:1065600081805a0002015b0083815b004f05be0001
:106570004f04be0000000600e00f5200e08f5a00fa
:10658000e00f5b00e08f5b00000006006044b80095
:106590006055b8000402540085825c0006035d006b
:1065a00087835d0000000600889fbe008a9fbe00b2
:1065b0008c1f7800e00f5000e08f5800e00f59006a
:1065c000e08f59000d003d006044b8006055b800f0
:1065d0000000540081805c0002015d0083815d0049
:1065e0001c0020000820e10009a8e1000ab0e10039
:1065f0000bb8e1000d003d00080037000006eb007d
:10660000e00f5200e08f5a00e00f5b00e08f5b006c
:1066100006003d006044b8006055b8000402540014
:1066200085825c0006035d0087835d00aaff07008a
:106630000c00e000060032006022b8006033b800b1
:106640000000520081805a0002015b0083815b00e0
:106650004f0678004f05be004f04be000000060044
:020000040000fa
:1066600053680000656e00006774000061690000f7
:10667000003100003800000033000000202000003e
:106680002020000020200000202000000025000025
:0466900064000000a2
:020000040000fa
:106694000000fa000080800030808800346ea90079
:1066a4000180800000ff2f000080600000808800cf
:1066b400308ea90030aea90030cea90030eea9007a
:1066c400306ea900302ea900304ea9000180800050
:1066d40000ff2f00008060000080880000808000a0
:1066e4003000b300008088000080800061406000ba
:1066f4000080fb00610060004400dd00a1718000a7
:106704000140a10001007000a07188000080800099
:106714000000d100614060000080fb006100600067
:106724004500dd00a17180000150a100010070004e
:10673400a0718800008080004200de00614060009b
:106744000080fb00610060004600dd00a171800054
:106754000160a10001007000a07188000080800029
:106764004300de00614060000080fb0061006000c7
:106774004700dd00a17180000170a10001007000dc
:10678400a0718800f8010700590207000180800009
:1067940000ff2f00008060000080880000808000df
:1067a4003000b300008088000080800061406000f9
:1067b4000080fb00610060004400dd00a1718000e6
:1067c4000140a10001007000a071880000808000d9
:1067d4000000d100614060000080fb0061006000a7
:1067e4004500dd00a17180000150a100010070008e
:1067f400a0718800008080004200de0061406000db
:106804000080fb00610060004600dd00a171800093
:106814000160a10001007000a07188000080800068
:106824004300de00614060000080fb006100600006
:106834004700dd00a17180000170a100010070001b
:10684400a0718800c80107002902070001808000a8
:1068540000ff2f000080600000808800008080001e
:106864003000b30000808800008080006140600038
:106874000080fb00610060004400dd00a171800025
:106884000140a10001007000a07188000080800018
:106894000000d100614060000080fb0061006000e6
:1068a4004500dd00a17180000150a10001007000cd
:1068b400a0718800008080004200de00614060001a
:1068c4000080fb00610060004600dd00a1718000d3
:1068d4000160a10001007000a071880000808000a8
:1068e4004300de00614060000080fb006100600046
:1068f4004700dd00a17180000170a100010070005b
:10690400a071880098010700f90107000180800048
:1069140000ff2f000080600000808800008080005d
:106924000010a000008088000080800061406000aa
:106934000080fb00610060004400dd00a171800064
:106944000140a10001007000a07188000080800057
:106954000000d100614060000080fb006100600025
:106964004500dd00a17180000150a100010070000c
:10697400a0718800008080004200de006140600059
:106984000080fb00610060004600dd00a171800012
:106994000160a10001007000a071880000808000e7
:1069a4004300de00614060000080fb006100600085
:1069b4004700dd00a17180000170a100010070009a
:1069c400a071880068010700c901070080c2b300f4
:1069d40035000700d2010700c0c0b3003200070031
:1069e400cf01070060c0b3002f000700cc010700ef
:1069f40010c0b3002c000700bd01070030808000e8
:106a04000080880000808000614060000080fb00fe
:106a1400610060004400dd00a17180000140a1001c
:106a240001007000a0718800008080000000d10087
:106a3400614060000080fb00610060004500dd00f3
:106a4400a17180000150a10001007000a0718800b4
:106a5400008080004200de00614060000080fb0096
:106a6400610060004600dd00a17180000160a100aa
:106a740001007000a0718800008080004300de00e7
:106a8400614060000080fb00610060004700dd00a1
:106a9400a17180000170a10001007000a071880044
:106aa4000080fa00000006000200fa00004f78009f
:106ab40000808000308088001e80fb004400de00df
:106ac4000040780002f0b7000180800000ff2f0032
:106ad4008080600002d0bf000080fb0001007000d5
:106ae4000080880000808000614060000080fb001e
:106af400610060004400dd00a17180000140a1003c
:106b040001007000a0718800008080000000d100a6
:106b1400614060000080fb00610060004500dd0012
:106b2400a17180000150a10001007000a0718800d3
:106b3400008080004200de00614060000080fb00b5
:106b4400610060004600dd00a17180000160a100c9
:106b540001007000a0718800008080004300de0006
:106b6400614060000080fb00610060004700dd00c0
:106b7400a17180000170a10001007000a071880063
:106b8400f90007009e4078006fc0600002f0b70073
:106b94000180800000ff2f008080600002d0bf00d1
:106ba4000080fb00010070000080880000808000ed
:106bb400614060000080fb00610060004400dd0073
:106bc400a17180000140a10001007000a071880043
:106bd400008080000000d100614060000080fb0064
:106be400610060004500dd00a17180000150a1003a
:106bf40001007000a0718800008080004200de0067
:106c0400614060000080fb00610060004600dd0020
:106c1400a17180000160a10001007000a0718800d2
:106c2400008080004300de00614060000080fb00c3
:106c3400610060004700dd00a17180000170a100c7
:106c440001007000a0718800c70007003080800038
:106c54000080880000808000614060000080fb00ac
:106c6400610060004400dd00a17180000140a100ca
:106c740001007000a0718800008080000000d10035
:106c8400614060000080fb00610060004500dd00a1
:106c9400a17180000150a10001007000a071880062
:106ca400008080004200de00614060000080fb0044
:106cb400610060004600dd00a17180000160a10058
:106cc40001007000a0718800008080004300de0095
:106cd400614060000080fb00610060004700dd004f
:106ce400a17180000170a10001007000a0718800f2
:106cf4000b0107000080fa00000006000200fa0001
:106d0400004f780000808000308088001e80fb00e7
:106d14004400de000040780002f0b70001808000eb
:106d240000ff2f008080600002d0bf000080fb00c5
:106d340001007000008088000080800061406000d5
:106d44000080fb00610060004400dd00a171800050
:106d54000140a10001007000a07188000080800043
:106d64000000d100614060000080fb006100600011
:106d74004500dd00a17180000150a10001007000f8
:106d8400a0718800008080004200de006140600045
:106d94000080fb00610060004600dd00a1718000fe
:106da4000160a10001007000a071880000808000d3
:106db4004300de00614060000080fb006100600071
:106dc4004700dd00a17180000170a1000100700086
:106dd400a0718800710007009e4078006fc06000b9
:106de40002f0b7000180800000ff2f008080600067
:106df40002d0bf000080fb0001007000008088000a
:106e040000808000614060000080fb006100600041
:106e14004400dd00a17180000140a1000100700068
:106e2400a0718800008080000000d10061406000f3
:106e34000080fb00610060004500dd00a17180005e
:106e44000150a10001007000a07188000080800042
:106e54004200de00614060000080fb0061006000d1
:106e64004600dd00a17180000160a10001007000f6
:106e7400a0718800008080004300de006140600053
:106e84000080fb00610060004700dd00a17180000c
:106e94000170a10001007000a07188003f0007008c
:106ea40030808000008088000080800061406000a5
:106eb4000080fb00610060004400dd00a1718000df
:106ec4000140a10001007000a071880000808000d2
:106ed4000000d100614060000080fb0061006000a0
:106ee4004500dd00a17180000150a1000100700087
:106ef400a0718800008080004200de0061406000d4
:106f04000080fb00610060004600dd00a17180008c
:106f14000160a10001007000a07188000080800061
:106f24004300de00614060000080fb0061006000ff
:106f34004700dd00a17180000170a1000100700014
:106f4400a0718800760007000080fa0000000600a7
:106f54000200fa00004f78001e40780067ff070027
:106f64000080fa00000006000000fa00342ea90098
:106f740000000000344ea90000000000346ea80098
:106f840000000000000000000000000000000000fd
:106f9400346ea9000080fa00000006000000fa0028
:106fa400342ea80000000000344ea90000000000a8
:106fb400346ea80000000000000000000000000083
:106fc40000000000346ea9000080fa0000000600f2
:106fd4000200fa00004f7800114798001e4090000c
:106fe4000080fb000080e800804078006000200002
:106ff4000008dd001e404000abfe0700480007000b
:107004000080fa00000006000200fa00000f780079
:107014001e0078001040780003f0b70003d0bf00d2
:107024000004e0000400320003d0bf0033ff070077
:107034001e0fe800f6ff37000080fa00000006008b
:107044000200fa00000f78001e007800104078005b
:1070540003f0b70003d0bf000004e00004003200d6
:1070640003d0bf0025ff07001e0fe800f6ff37001e
:107074000080fa00000006000400fa00204798008f
:107084002e4090000080fb004400de00004f78009a
:107094001e407800e94f50000300360071c3b3006e
:1070a4001ecf40000200370001c3b3001ecf4000d2
:1070b4001e40780011ff07002e4090006f4f6000c3
:1070c4001e407800e94f50000300360071c3b3003e
:1070d4001ecf40000200370001c3b3001ecf4000a2
:1070e4001e40780005ff07000080fa00000006003b
:1070f4000200fa000000eb00000f780002003700e5
:10710400070007001e0fe800300620009e007800ec
:10711400808f5000faff34000080fa00000006005f
:107124000400fa000000eb00000f780004003700b0
:107134001e0090000000e800100798001e0fe800f1
:10714400700c20009e007800808f5000f8ff3400ff
:107154000080fa00000006000600fa0020079800ec
:10716400ae009000d0cc2c000008b8004309de002b
:10717400d0cc2c000010b8004308de00ea00b900af
:10718400000f5100ae00900040062000000178007e
:10719400110009008280d8008000fd000001780001
:1071a400d0cc2c000010b8004308de00ea00b9007f
:1071b40000005100100798001e007800004078007d
:1071c4000043b00062ff07001e00900000407800fa
:1071d4000043b0005eff07000080fa0000000600d4
:1071e4000800fa00300798003e009000c200de005c
:1071f400b04721000008b8000100d100000f78005a
:10720400be009000d0cc2c000008b8004309de007a
:10721400d0cc2c000010b8004308de00ea00b9000e
:107224000000510010079800be00900040062000a6
:1072340000017800110009008280d8008000fd0060
:1072440000017800d0cc2c000010b8004308de0008
:10725400ea00b90000005100200798001e007800e1
:10726400004078000043b00039ff07001e00900082
:10727400004078000043b00035ff07002e00900066
:10728400004078000043b00031ff07000080fa009e
:10729400000006000800fa00200798003107980053
:1072a4002e009000be009000823e200003002000cb
:1072b40061f60700004f78002e009000be00900099
:1072c40042062000030020005bf60700a200200015
:1072d4000300200068f60700104798002e00900075
:1072e400be009000a20020000300200052f6070018
:1072f400a2002000030020005ff60700204798004a
:107304002e009000be0090004206200003002000e2
:1073140059f60700a20020000300200056f60700db
:107324003047980001c3b3001ec0400008ff0700a7
:107334001e4090000043b00005ff07002e4090005f
:107344000043b00002ff07003e4090000043b0003d
:10735400fffe07000080fa00000006001800fa0093
:10736400200f9800310f98002e089000be0890005e
:1073740002712200030020002ff60700008fbe00d8
:107384002e089000be089000823e200003002000da
:1073940029f60700a20020000300200036f60700ab
:1073a40020079800310798002e089000be0890002e
:1073b40042062000030020001ff60700a200200060
:1073c400030020002cf6070040079800510798009e
:1073d4002e089000be089000a200200003002000a8
:1073e40015f60700a20020000300200022f6070083
:1073f40060079800710798002e089000be0890005e
:1074040042062000030020001bf60700a200200013
:107414000300200018f60700000f9800110f9800d1
:107424001e007800004078000043b000c8fe07004a
:107434002e009000004078000043b000c4fe070016
:107444004e009000004078000043b000c0fe0700ea
:107454006e009000004078000043b000bcfe0700be
:107464000e089000004078000043b000b8fe07000a
:107474000080fa00000006000000fa00800c2000e2
:10748400960207001000200096010700800c2000df
:107494009202070010002000bc010700800c2000ad
:1074a4008e020700800020008e010700800c20005f
:1074b4008a02070080002000b4010700800c20002d
:1074c400860207000000eb00860107009000200000
:1074d40084010700800c20008002070010002000b7
:1074e40080010700800020007e010700800c20003e
:1074f4007a020700200020007a01070070002000b3
:1075040078010700800c200074020700300020007e
:10751400740107006000200072010700800c200045
:107524006e020700400020006e010700500020009a
:107534006c010700800c2000680207004000200056
:10754400920107005000200090010700800c2000e9
:1075540062020700300020008c0107006000200058
:107564008a010700800c20005c0207002000200034
:10757400860107007000200084010700800c2000b1
:107584005602070010002000800107008000200040
:107594007e010700800c2000500207000000eb0071
:1075a4007a0107009000200078010700800c200079
:1075b4004a0207000080fa00000006000000fa00fa
:1075c4001173800000202000008060000000e000b3
:1075d4000d003a00408080000000e80040808800f0
:1075e4004080800093010700400620003b02070012
:1075f4000000000011738000002020000080600063
:107604000000e000fbff3200117380000004200042
:10761400008060000000e0000d003a00408080001f
:107624000000e9004080880040808000810107005c
:1076340040062000290207000000000011738000aa
:1076440000042000008060000000e000fbff320026
:107654001173800000102000008060000000e00032
:107664000d003a00408080006a004000408088009d
:10767400408080006f0107004006200017020700c9
:1076840000000000117380000010200000806000e2
:107694000000e000fbff32001173800000082000ae
:1076a400008060000000e0000d003a00408080008f
:1076b4006a00500040808800408080005d0107001f
:1076c400400620000502070000000000117380003e
:1076d40000082000008060000000e000fbff320092
:1076e4000080fa00000006000000fa001173800018
:1076f40000102000008060000000e0000e003a004e
:10770400608080000000e0000300320060808000a0
:107714000000e9006080880040062000ef010700b7
:107724000000000011738000001020000080600041
:107734000000e000fbff320011738000000820000d
:10774400008060000000e0000e003a0060808000cd
:10775400e50f500003003e00608080000000e80058
:107764006080880040062000dc0107000000000063
:107774001173800000082000008060000000e00019
:10778400fbff320002332b008040eb000040eb0093
:107794006e010700608080000040780092332b0067
:1077a40011c0b300690107000080fa000000060060
:1077b4000200fa000000eb00000f7800050037001b
:1077c400800c2000c50107001e007800c5000700da
:1077d4001e0fe8001e007800e90f5000f8ff340087
:1077e400300020006080880051808000608080002c
:1077f400004078000101780011c0b3006301070064
:107804000080fa00000006000200fa0011738000f4
:1078140000102000008060000000e00013003a0027
:107824000000eb00000f780005003700800c2000fa
:10783400aa0107001e007800d40007001e0fe8000c
:107844001e007800e90f5000f8ff3400800c20007f
:10785400a201070000000000117380000010200046
:10786400008060000000e000fbff32000080fa00ae
:10787400000006000200fa001173800000082000d6
:10788400008060000000e0001e003a00518080008b
:10789400010f78009e007800638f400030062000be
:1078a4009e007800808f500002003e009e00780009
:1078b4005180880060808000e50f500003003e0086
:1078c400608080000000e8006080880051808000b3
:1078d40060808000004078000101780011c0b3008e
:1078e4002a010700800c20007c0107000000000032
:1078f4001173800000082000008060000000e00098
:10790400fbff32000080fa00000006000200fa00cb
:107914001173800000042000008060000000e0007b
:107924001d003a0051808000010f78009e0078000d
:10793400648f50001e0078000000e0000200320056
:107944009e00780051808800608080000000e00084
:1079540003003200608080000000e900608088003d
:107964005180800060808000004078000101780030
:1079740011c0b30005010700800c20005701070067
:1079840000000000117380000004200000806000eb
:107994000000e000fbff32000080fa000000060057
:1079a4000000fa00117380000020200000806000b5
:1079b4000000e00016003a009171800000402000b1
:1079c400008060000000e00011003a00c2332b0088
:1079d40011c0b3000040eb00dc000700800c200065
:1079e4003e01070000000000117380000020200009
:1079f400008060000000e00005003a009171800002
:107a040000402000008060000000e000f6ff32002b
:107a14000080fa00000006000000fa000a000700d7
:107a24001600070043010700c400070020000700f8
:107a34005fff070074ff07008eff0700b3ff070016
:107a4400d7ff0700fbff37000000fa00a003200067
:107a5400303a8800213a8000f0f32f000080600063
:107a6400203a8800213a800000fe2f000080600048
:107a7400203a88000080fa00000006000000fa00a6
:107a8400312ea900310ea90011aea900118ea90052
:107a9400116ea900114ea900112ea900110ea90002
:107aa40010eea90010cea9000080fa000000060024
:107ab4000000fa00352ea800350ea80015aea80067
:107ac400158ea800156ea800154ea800152ea80046
:107ad400150ea80014eea80014cea8000080fa0029
:107ae400000006000200fa00000f78001e00780073
:107af4008000eb009200200003002000820f500061
:107b0400838f58001f003e00000601000900370063
:107b14000a0037000b0037000c0037000d00370057
:107b24000e0037000f003700100037001100370037
:107b340012003700352ea9001200370014cea90018
:107b44001000370014eea9000e003700150ea9002e
:107b54000c003700152ea9000a003700154ea900a5
:107b640008003700156ea90006003700158ea9001d
:107b74000400370015aea90002003700350ea90035
:107b8400000000000080fa00000006000200fa0075
:107b9400000f78001e0078008000eb0092002000a7
:107ba40003002000820f5000838f58001f003e0006
:107bb40000060100090037000a0037000b003700f7
:107bc4000c0037000d0037000e0037000f0037009f
:107bd400100037001100370012003700352ea800be
:107be4001200370014cea8001000370014eea800cd
:107bf4000e003700150ea8000c003700152ea80043
:107c04000a003700154ea80008003700156ea800ba
:107c140006003700158ea8000400370015aea80032
:107c240002003700350ea800000000000080fa00b2
:107c3400000006000800fa00300798003e0190009a
:107c4400d0cc2c000010b8004308de00ea00b900d4
:107c540000005100000f78001e007800be00900064
:107c640080805000400620000001780011000900c7
:107c74008280d8008000fd0080007800d0cc2c00e9
:107c84000008b8004308de00100798009e0090002a
:107c940060ff2f008088b900800078003e009000cb
:107ca400808040001e00780080805000803e2000cc
:107cb40000017800110009008280d8008000fd00d6
:107cc400c200de00b04721000008b8000100d10066
:107cd400200798002e00900082ff0700800c2000ef
:107ce4007e0007002e009000a8ff0700800c2000f3
:107cf4007a0007001e0090007aff0700800c200025
:107d0400760007001e009000a0ff0700800c2000f2
:107d1400720007001e00780072ff0700800c20002c
:107d24006e0007001e00780098ff0700800c2000fa
:107d34006a0007000080fa00000006000000fa0054
:107d440053fa07000080fa00000006000400fa005d
:107d5400004f780011479800120798009e40900049
:107d64000040eb009afc0700e0332b00a6fc070060
:107d74009e4090001e40780095fc07001e00900075
:107d8400a1fc07000080fa00000006000800fa00c9
:107d94004047980051479800320798003e009000f1
:107da40000f0a7000000ea00cf80de00b5f2070073
:107db40012f30700b6f207000200200003f82300c4
:107dc40032f207008ef20700000f78001e007800e0
:107dd400b1f4070010079800be009000811f7800de
:107de40070342b00801f78001e009000e5f407001b
:107df400e48757001e019000de4090004e40900042
:0c7e0400d2ff07000080fa00000006001a
:020000040000fa
:107e100000100000080000008000000008100000b2
:107e200004000000820000001200020000000000b8
:107e30000c10000002000000800000000e10000086
:107e4000020000008000000050100000020000004e
:107e500082000000040000004c100000040000003c
:107e600080000000321000001a00000082000000b4
:107e7000686a6c00747a4c00000001000002000087
:107e80000400080000100000000020002b2d23003b
:107e900030000000101000002200000082000000ee
:107ea0003031320033343500363738003941420042
:107eb000434445004600300031323300343536004b
:107ec00037383900616263006465660000000000b5
:107ed00052100000020000008000000000000000be
:020000040000fa
:107ee0000600fa00200798000000eb00000f780061
:107ef0000b0037000000eb0010079800030037006c
:107f00001e0090000000e800100798009e009000fe
:107f100080382100808f5000f9ff36001e0fe800e6
:107f20002e0090009e007800808f5000f1ff3600f8
:107f30000080fa00000006000000fa00612ea80090
:107f40006f2ea90060cea8006ecea900610ea80019
:107f50006f0ea90060eea8006eeea900408ea8008a
:107f60004e8ea900314ea8000080fa0000000600e5
:020000040000fa
:0200000401f009
:04000c00830000006d
:020000040000fa
:0200000401f009
:0400100025000000c7
:020000040000fa
:0200000401f009
:040014007f00000069
:00000001FF
