:020000040000fa
:080000000022040000000000d2
:020000040000fa
:1000080004200000082000000c2000001020000040
:1000180014200000182000001c200000e02100002f
:100028002020000024200000282000002c200000b0
:100038003020000034200000382000003c20000060
:100048004020000044200000482000004c20000010
:100058005020000054200000582000005c200000c0
:100068006020000064200000682000006c20000070
:100078007020000074200000782000007c20000020
:100088008020000084200000882000008c200000d0
:100098009020000094200000982000009c20000080
:1000a800a0200000a4200000a8200000ac20000030
:1000b800b0200000b4200000b8200000bc200000e0
:1000c800c0200000c4200000c8200000cc20000090
:1000d800d0200000d4200000d8200000dc20000040
:1000e800e0200000e4200000e8200000ec200000f0
:1000f800f0200000f4200000f8200000fc200000a0
:100108000021000004210000082100000c2100004b
:10011800102100001421000018210000e021000037
:10012800e02100001c210000202100002421000003
:10013800282100002c21000030210000342100007b
:10014800e021000038210000e02100003c210000ef
:10015800e0210000e0210000e0210000e021000093
:10016800e021000040210000442100004821000057
:10017800e0210000e02100004c2100005021000097
:1001880054210000582100005c210000602100007b
:1001980064210000682100006c210000702100002b
:1001a8007421000078210000e0210000e021000017
:1001b800e0210000e0210000e0210000e021000033
:1001c800e0210000e0210000e0210000e021000023
:1001d800e0210000e0210000e0210000e021000013
:1001e800e0210000e0210000e0210000e021000003
:1001f800e0210000e02100007c21000080210000b7
:1002080084210000882100008c210000902100003a
:1002180094210000982100009c210000a0210000ea
:10022800a4210000a8210000ac210000b02100009a
:10023800b4210000e0210000b8210000bc2100002a
:10024800c0210000c4210000c8210000cc2100000a
:10025800d0210000d4210000d8210000dc210000ba
:020000040000fa
:104000000022040000000000fe2204000000000066
:10401000fe22040000000000fe2204000000000058
:10402000fe22040000000000fe2204000000000048
:10403000fe22040000000000fe2204000000000038
:10404000fe22040000000000fe2204000000000028
:10405000fe22040000000000fe2204000000000018
:10406000fe22040000000000fe2204000000000008
:10407000fe22040000000000fe22040000000000f8
:10408000fe22040000000000fe22040000000000e8
:10409000fe22040000000000fe22040000000000d8
:1040a000fe22040000000000fe22040000000000c8
:1040b000fe22040000000000fe22040000000000b8
:1040c000fe22040000000000fe22040000000000a8
:1040d000fe22040000000000fe2204000000000098
:1040e000fe22040000000000fe2204000000000088
:1040f000fe22040000000000fe2204000000000078
:10410000fe22040000000000fe2204000000000067
:10411000fe22040000000000fe2204000000000057
:10412000fe22040000000000fe2204000000000047
:10413000fe22040000000000fe2204000000000037
:10414000fe22040000000000fe2204000000000027
:10415000fe22040000000000fe2204000000000017
:10416000fe22040000000000fe2204000000000007
:10417000fe22040000000000fe22040000000000f7
:10418000fe22040000000000fe22040000000000e7
:10419000fe22040000000000fe22040000000000d7
:1041a000fe22040000000000fe22040000000000c7
:1041b000fe22040000000000fe22040000000000b7
:1041c000fe22040000000000fe22040000000000a7
:1041d000fe22040000000000fe2204000000000097
:1041e000fe22040000000000fe2204000000000087
:1041f000fe22040000000000fe2204000000000077
:10420000fe22040000000000fe2204000000000066
:10421000fe22040000000000fe2204000000000056
:10422000fe22040000000000fe2204000000000046
:10423000fe22040000000000fe2204000000000036
:10424000fe22040000000000fe2204000000000026
:10425000fe22040000000000fe2204000000000016
:10426000fe22040000000000fe2204000000000006
:10427000fe22040000000000fe22040000000000f6
:10428000fe22040000000000fe22040000000000e6
:10429000fe22040000000000fe22040000000000d6
:1042a000fe22040000000000fe22040000000000c6
:1042b000fe22040000000000fe22040000000000b6
:1042c000fe22040000000000fe22040000000000a6
:1042d000fe22040000000000fe2204000000000096
:1042e000fe22040000000000fe2204000000000086
:1042f000fe22040000000000fe2204000000000076
:10430000fe22040000000000fe2204000000000065
:10431000fe22040000000000fe2204000000000055
:10432000fe22040000000000fe2204000000000045
:10433000fe22040000000000fe2204000000000035
:10434000fe22040000000000fe2204000000000025
:10435000fe22040000000000fe2204000000000015
:10436000fe22040000000000fe2204000000000005
:10437000fe22040000000000fe22040000000000f5
:10438000fe22040000000000fe22040000000000e5
:10439000fe22040000000000fe22040000000000d5
:1043a000fe22040000000000fe22040000000000c5
:1043b000fe22040000000000fe22040000000000b5
:0843c000fe22040000000000d1
:020000040000fa
:10440000af0421000eff27000e018800000000000d
:10441000000020000000e000020032000001200047
:104420002002880014000700760007000000e0006a
:1044300003003a0000902300010020000200370032
:104440000000200001002000810f700001003200f8
:104450000f000700000020000000e0000200320012
:1044600000000200000000002037020000000000f1
:104470000040da000000fe00a00120000000e00083
:104480000200320000202000900188000000060099
:10449000a1028800800478000000eb001f003700b4
:1044a000e284440054a0b4009905ba00e2844400b8
:1044b00054a0b4009906ba00e284440054a0b400a9
:1044c0000006eb00476fde00fd07b200ae0188007a
:1044d000636ce10003003a000ad801000000eb0021
:1044e0000e003700606ce10008003a00004deb0060
:1044f0000a05e800020039003420ec000af0a000b0
:104500008b05e900f9ff3e00040037006168e10017
:10451000010032000086eb000b00070019c7ba004b
:104520000e04e0001905ba0003003a000a00e0009a
:10453000dbff3a0000000600fe07b200ae02880072
:104540008a047800f5ff37000cd0a300e20f4d007d
:104550001c00390089027800354dba000a05e800d0
:10456000020039003420ec000af0a0008b05e900bd
:104570000f003200254dba000a05e800020039009c
:104580003420ec000af0a0008b05e900080032009e
:104590000c00e0000600320015cdba000a05e80064
:1045a000020039003420ec000af0a0008b05e9007d
:1045b0008984e80054a0b4000b00e000e2ff3a0058
:1045c000000006009902ba00055d78008b05e9003d
:1045d000f7ff3200c82ade00055d78008b05e90090
:1045e000f3ff32000c00e000f1ff320019ddba00e9
:1045f000eeff37002a230400000000000040da002c
:104600000000fe00000005006022b8000602200045
:104610000000d0008180d2000482d2008582d200c6
:104620000000a0000202520083825a000300310001
:104630000202420083824a000000a1000603e90052
:10464000f3ff3a0000000600efff07000400be0081
:1046500000000600881f7800020478000801780036
:10466000c4000700080040004f0478000000060066
:104670000000fa00881f780000047800ea815700e3
:104680003fb9970088007800a03222000700070099
:104690000000e0000200350000044400004ceb0084
:1046a0004f0478000080fa00000006006200fa0063
:1046b000889fbe008a1f780000057800810478007a
:1046c000020478008300780080f92f000f0040007a
:1046d000770107009a979f00a9979f000000eb00c1
:1046e000b09f9f001885fb008a04fb000a05ea00c2
:1046f0004f55de0050022000808f54000d00320024
:10470000e10f55000b003a000a017800880078009c
:104710002f9097009f91970003000100a0979f00a2
:104720000000e0008e0032003f9897000000e80093
:10473000b09f9f000a04440050022000808f540064
:10474000040032000900e000e6ff3a003f989700bd
:10475000840037000000eb00909f9f00809f9f0027
:10476000f0979f00e0979f00d0979f00c0979f0011
:104770000700370041042100010050000000400004
:1047800081032100808040005f9897001100700035
:10479000d09f9f008804780009047800384578008d
:1047a0008a00fb0040042100790007000000e000bf
:1047b000f0ff3a00a1c2b300814f55000e003a004d
:1047c000cf8897000180e900c08f9f00100078001b
:1047d000c09f9f000000e00005003d000000ea00cf
:1047e000c09f9f005f9897000020a000d09f9f006f
:1047f0000904e8000f003700c09f9f000000eb0095
:1048000005003700f2ff2700820f5000020032003f
:10481000ea00b900008040000904780088047800ac
:10482000b900fb000103b100e98f5000f5ff36002d
:10483000c09f9f00e0c2b300984f100002003200fa
:104840000080eb0019003700a0c2b300d84f100061
:1048500007003a00cf8897000180e900c08f9f00d1
:1048600010007800a09f9f000804e80010003700a7
:104870000000eb00a09f9f00880078000500370033
:10488000f3ff2700830f500002003200ea00b90056
:104890000000410001047800880078003101fb002d
:1048a0000203b100e90f5100f5ff3600a09f9f0001
:1048b000984478008900fb000003210034000700c1
:1048c0000000e000020032000804e80001003700a8
:1048d0008044eb00c97f9f0080c6b30080cf5400a6
:1048e00004003a0098cf14000a003a0066405000d5
:1048f00006003700c0c6b30080cf540005003a0060
:1049000098cf140003003a0065404000c07f9f002c
:104910000804e8001801fb00e3fb2f008f81410031
:1049200081f92f008f804000a0f92f000f00400078
:10493000e10007000000e00009003a00e1fb2f0061
:104940008f804000a0f92f000f0040001c000700de
:104950000000e000020035000804e80061ff3700b5
:104960000080eb004f0578004f04be000080fa0085
:10497000000006008001780002003700b15978007d
:104980000201e9000200e000fcff3a00000006001e
:10499000020037000304e000060032000001780046
:1049a00002007800b041780081cf5100f9ff3a0051
:1049b000010037000001eb00020078000000060053
:1049c0000400fa00889fbe008a9fbe008c1f7800fa
:1049d0000004780001067800f80d9000780090003f
:1049e00080855500080890008085550018089000c3
:1049f0008085550028089000808555003808900073
:104a000080855500480890008085550000022200ee
:104a100090bf9f0000032300a0bf9f0008109000dc
:104a20000028a30015003a000b00e000130034003a
:104a30000b0578008a047800e20f5500010036006b
:104a400029002000c801900009017800ee8057007d
:104a50005800900003000100500498000000e0009e
:104a60008c0032006808900009004000600c98003b
:104a7000090555004240a900eeff3c007801900076
:104a80000200e0000c003400c80190008c007800a7
:104a90005800900003000100500498008080eb0053
:104aa0000000e0007c003200e808900078009000f0
:104ab00000804000600c9800880c90000900e00025
:104ac0001100340009057800e28f5400010036001f
:104ad0002a002000c80190000a017800ec805700ed
:104ae0005800900003000100500498000000e0000e
:104af00068003200680890000a004000600c9800ce
:104b00008a845400edff3700180990000200e0008d
:104b10000c003400c8019000e8009000580090009c
:104b200003000100500498008080eb000000e000ca
:104b300059003200e80890001808900000804000fa
:104b4000600c9800a80c90000900e00011003400ef
:104b500009057800e28f5400010036002a00200089
:104b6000c80190000a017800ec80570058009000be
:104b700003000100500498000000e00045003200ee
:104b8000680890000a004000600c98008a84540075
:104b9000edff3700380990000200e0000e003400fd
:104ba000e80090001808900080804000c801900044
:104bb0005800900003000100500498008080eb0032
:104bc0000000e00034003200e8089000380890004f
:104bd00000804000600c9800c80c90000900e000c4
:104be0001100340009057800e28f540001003600fe
:104bf0002a002000c80190000a017800ec805700cc
:104c00005800900003000100500498000000e000ec
:104c100020003200680890000a004000600c9800f4
:104c20008a845400edff3700081090008000eb00ec
:104c30000028a300180032000b00e000160034002a
:104c40008b04780009057800e28f540001003600db
:104c50002a002000c80190000a017800ee80570069
:104c60005800900003000100500498000000e0008c
:104c700008003200680890000a004000600c9800ac
:104c80008a8454004240a900eeff3c008000eb0003
:104c9000010037008080eb00010078004f067800ab
:104ca0004f05be004f04be000080fa000000060061
:104cb0000108780000000600889fbe008a9fbe00a1
:104cc000e4c6b300844f5100ce00320010003c0017
:104cd0006b425200844f51001800320005003c0026
:104ce00054c2b300844f51000601320084c5b300a2
:104cf0000f00370044c6b300844f51001500320046
:104d000065424200844f510001013a001100370012
:104d100004c7b300844f5100ed0032005f0035003e
:104d200065424200844f51005c0032006342420001
:104d3000844f5100f6003a00580037001181e90015
:104d400082087800f000900081814100924978004b
:104d5000f500370020629000c5c6b300854f5200b1
:104d600008003a00910278006482520084087800ba
:104d700094029000140278004fabde0086037800a6
:104d80001600370015c7b300854f520003003a00e4
:104d9000110478006802540005003700a5c6b3006e
:104da000854f520008003a00910478006882540050
:104db000840878009402900024039000b4039000cb
:104dc00014027800050037001182e9008408780099
:104dd00014027800cfa2de00612bb9000498be0057
:104de0000690be00a060900088c6b30088cf500037
:104df0000d00320028c6b30088cf500004003a00ee
:104e00000402fb00cfa2de00612bb90008003700ce
:104e100048c7b30088cf5000030032006644440006
:104e200088cf500004003a00cfa2de00612bb90009
:104e30000498be000690be00100278009002900018
:104e400020039000b0039000f0009000e00f5200ab
:104e5000e08f5a00e00f5b00e08f5b0003003d0035
:104e600001824100d5c2b3000a0037000012900051
:104e70000418a3000300320001824100b5c2b30050
:104e8000040037000408a3005900320001824100e9
:104e900005c2b300054a7800530037002062900035
:104ea000c5c6b300854f520009003a0011057800cd
:104eb000640255008408780014047800940490007b
:104ec0006055b8000802be000a03be001600370095
:104ed00015c7b300854f520003003a0091047800d3
:104ee0006882540005003700a5c6b300854f520004
:104ef00008003a001105780068025500840878001f
:104f00009402900024039000b403900014027800ef
:104f1000050037001182e900840878001402780047
:104f20008002eb006033b8000498be000690be001b
:104f3000a060900088c6b30088cf50000d003200fa
:104f400028c6b30088cf500004003a000482fb005a
:104f50008002eb006033b8000800370048c7b30098
:104f600088cf5000030032006644440088cf5000d0
:104f700004003a008002eb006033b8000498be00e1
:104f80000690be00801090000138a3001800320087
:104f9000100278009002900020039000b00390006f
:104fa000e00f5200e08f5a00e00f5b00e08f5b00e3
:104fb0000f00320081c7b300814f5100030032005f
:104fc00081c5b300814f510009003a00f000900004
:104fd0000182410005c3b300054a78008100e80062
:104fe00001824100024a78008100e80071009800c7
:104ff000f0009000818141006300980082407800b9
:105000003e003700a0619000c4c6b3001181e900e2
:1050100084cf5100220032000a003c00644252005a
:1050200084cf51002500320004c2e80084cf510033
:10503000130032006842520084cf51001e003a0033
:105040000a00370044c7b30084cf51001b00320070
:105050006642420084cf510018003200694252007b
:1050600084cf510014003a00050037008208780010
:105070009200780040589000804878002c0037005b
:105080008208780092007800600a9000cfa2de00cb
:10509000612bb9008498be008690be0024003700c2
:1050a000820878009200780060099000cf91de00bd
:1050b0008288be001e0037001181e9008208780056
:1050c000920078006008900080087800180037008f
:1050d0001181e9008208780012027800cfa2de0078
:1050e000612bb9000498be000690be00f00090004d
:1050f000818141006300980081c7b3001000070060
:105100000b003700f000900081814100050037005e
:10511000f0009000818141000204e00001003a00ab
:1051200052c2b300824978008100e8007100980003
:105130000000eb004f05be004f04be00000006005b
:10514000fc874700889fbe008a9fbe008c9fbe00e0
:105150008e1f78000006780080c5b30080cf500015
:105160000a0032007740400080cf50000a00320031
:105170006940400080cf50000b003200f001210058
:1051800080bf9f00ae0020000a003700e20021002f
:1051900082bf9f0006003700f301210083bf9f00fc
:1051a0008e00200003003700f401210084bf9f001f
:1051b0000e0120001c0278009c0290002c0390003d
:1051c000bc0390000605be000404be0040c6b30048
:1051d00080cf5000030032006540400080cf500077
:1051e0000b003a00e00f5200e08f5a00e00f5b0026
:1051f000e08f5b0006003d006000b8006011b80061
:10520000040450008584580006055900878559001c
:10521000e80f57000400320040002000f00f570054
:105220003c003a000100370030002000e00f54003d
:10523000e08f5c00e00f5d00e08f5d0004003a004d
:10524000dc0890008d0120000100e0000700320022
:105250008e00e900888060008fba9700818042004c
:1052600091407800f1ef9f007d01200080007800e0
:105270008100e900050033008b05d1000a85d300c9
:105280008984d3000884d300f9ff3700089ebe004c
:105290000a96be00130037008d06e9008e00e90073
:1052a000848060000fb997008100410011417800af
:1052b00083fd2f008d81410082f779008001780005
:1052c0008301e900050033008783d1000683d30002
:1052d0008582d3000482d300f9ff3700049ebe000c
:1052e0000696be001c0278009c0290002c039000e1
:1052f000bc039000e00f5200e08f5a00e00f5b000b
:10530000e08f5b00930034000d00e000e2ff3c0002
:10531000900037002c60900081c6b300814f500090
:105320000b00320006003c000004e00008003200e0
:10533000e6c05000814f500052003a000400370090
:10534000c1c6b300814f50004e003a002300370021
:105350000800e00004003a005c0890008d01200085
:105360000000e00007003200110009000e84d800a0
:105370000fba97000100420010407800f0ef9f0044
:105380007d012000110009000e84d8000b003700b9
:10539000110009000e04d8008d06e9008e81b900c5
:1053a000020454008fb897000884400098417800a8
:1053b00082fd2f000d014100837779000004780001
:1053c0000800e000020032000d00e000f0ff3c00a9
:1053d000cfc4de00614db90027003700e00f540054
:1053e000e08f5c0004003a005c0890008d01200012
:1053f0000000e000080032006171b9000800be0042
:1054000091fc07000fba970080004200914078009d
:10541000f1ef9f007d0120006171b9000800be001e
:1054200079fc07000c0037006171b9000800be006c
:10543000800007008d06e90080f1b90002045400e5
:105440008fba9700088442009841780082fd2f00af
:105450000d014100837779000004be00e00f500089
:10546000e08f5800020032000d00e000eeff3c002b
:105470004fcdde008a057800089ebe000a96be0069
:1054800034003700e00f5400e08f5c00e00f5d0057
:10549000e08f5d0004003a005c0890008d01200060
:1054a0000000e0000a0032006172b900612bb9000f
:1054b0000800be000a01be000f0107000fba9700e6
:1054c0008000420091407800f1ef9f007d012000b4
:1054d0006172b900612bb9000800be000a01be006c
:1054e000fe0007000e0037006172b900612bb900a1
:1054f0000800be000a01be00030107008d06e90096
:1055000080f2b900040454008fba97000884420066
:105510009842780084fd2f000d02420085777a00c2
:10552000009ebe000296be001c0478009c04900001
:105530002c059000bc059000e00f5400e08f5c004b
:10554000e00f5d00e08f5d00020034000d00e00020
:10555000e5ff3c00e80f570010003a000c109000e7
:105560000038a3000d003200f78f560006003e0001
:1055700080fd2f000d004000ef40780000c3b30015
:1055800080cf50000500320002c3b30071fd2f0030
:105590008d8040008d06e90082f778007881160042
:1055a000120e98006c00900083fd2f008f81410047
:1055b0008d804100effc07001c089000dc08900083
:1055c000810f500006003d0000805000000e980042
:1055d0000c1090000040a100001698000f0037004a
:1055e0000100e0000d003d008c109000f480600090
:1055f000f08f500009003a007c099000fc009000f8
:10560000810051000c099000828050000080500001
:105610004240a90001003400000e98004f077800b6
:105620004f06be004f05be004f04be00cf01b100c3
:1056300000000600839f68000100e00002003d00ba
:1056400060001000e08018000300e00002003d0050
:1056500060011100e0811900ebfb07004f00e00042
:1056600002003b0060001000e0801800000006000f
:10567000889fbe008a9fbe0030044200b0844a006a
:1056800030054b0090854b006000b1000898be00cb
:105690000a90be000440e10005c8e10006d0e10028
:1056a00007d8e10002003100680040001008e8005f
:1056b0004f05be004f04be0000000600889fbe00dc
:1056c0008a9fbe001004780090049000200590008e
:1056d000b00590000418540005985c0006185d00a1
:1056e00007985d00110020000440e10005c8e100ba
:1056f00006d0e10007d8e100010039008000eb008e
:10570000108810004f05be004f04be0000000600c8
:105710001200fa00889fbe008a9fbe008c9fbe00c8
:10572000e0b79f00f1b79f0082bf9f0093bf9f002b
:105730000605be000404be000000eb00d0b79f00c9
:10574000c0b79f00b0b79f00a0b79f0090b79f0061
:105750000006eb005fb19700cfb0970082014100d7
:105760003fb097000200e00004003d003700070052
:105770007e805700beff070003003700330007009c
:105780007e805700cdff0700dfb697000d00e000d8
:105790000c0035006fb29700ffb297000fbb970067
:1057a0009fbb970010002000010020006011b8008e
:1057b000000272008182720002037300838373000f
:1057c0001b0007000c06e80001042000810f5600b2
:1057d000e0ff3a000d00e00004003d000802be00ba
:1057e0000a03be007e805700a1ff07005fa8970054
:1057f0000000e00005003a001fb29700afb297002a
:105800003fb39700cfb39700090007006fb0970030
:10581000ffb097000fb997009fb997004f06be00e1
:105820004f05be004f04be000080fa0000000600d5
:105830000100070000000600a4b79f00b5b79f0055
:10584000c6b79f00d7b79f00000006004f09de00d3
:1058500082817100b3b79f004f01de00818040005c
:1058600082807000a1b79f008fb097004f09de00c3
:10587000000040000200700090b79f007fa89700d2
:105880004f01de00818040008280700081b79f0060
:105890000d0007004f3ade000000400004007000d9
:1058a000f0af9f00080007000402420085824a0012
:1058b00006034b0087834b00dfff07000802be0092
:1058c0000a03be00000006002fb29700bfb2970087
:1058d0004fb39700dfb3970000000600881f7800e1
:1058e00018002000881f780089ff07008f87e900d3
:1058f0004f04780000000600801feb0084ff0700c3
:105900008f87e90000000600889fbe008a9fbe00c6
:10591000e00f5000e08f5800e00f5900e08f590071
:105920000c003d006044b8006055b8000000540011
:1059300081805c0002015d0083815d001800200011
:105940001500070008003d00180007000004eb00e8
:10595000050037000004eb000f00070002003d00c7
:105960001200070018002000dcff07000800e0001c
:10597000060032006022b8006033b8000000520018
:1059800081805a0002015b0083815b004f05be00ed
:105990004f04be0000000600e00f5200e08f5a00e6
:1059a000e00f5b00e08f5b00000006006044b80081
:1059b0006055b8000402540085825c0006035d0057
:1059c00087835d0000000600889fbe008a9fbe009e
:1059d0008c1f7800e00f5000e08f5800e00f590056
:1059e000e08f59000d003d006044b8006055b800dc
:1059f0000000540081805c0002015d0083815d0035
:105a00001c0020000820e10009a8e1000ab0e10024
:105a10000bb8e1000d003d00080037000006eb0068
:105a2000e00f5200e08f5a00e00f5b00e08f5b0058
:105a300006003d006044b8006055b8000402540000
:105a400085825c0006035d0087835d00aaff070076
:105a50000c00e000060032006022b8006033b8009d
:105a60000000520081805a0002015b0083815b00cc
:105a70004f0678004f05be004f04be000000060030
:020000040000fa
:105a80002020000020200000202000002020000016
:105a900000000000256400000000000053680000c2
:105aa000656e00006774000061690000003100004d
:045ab00038000000ba
:020000040000fa
:105ab4000000fa000080800030808800346ea90065
:105ac4000180800000ff2f000080600000808800bb
:105ad400308ea90030aea90030cea90030eea90066
:105ae400306ea900302ea900304ea900018080003c
:105af40000ff2f000080600000808800008080008c
:105b04003000b300008088000080800061406000a5
:105b14000080fb00610060004400dd00a171800092
:105b24000140a10001007000a07188000080800085
:105b34000000d100614060000080fb006100600053
:105b44004500dd00a17180000150a100010070003a
:105b5400a0718800008080004200de006140600087
:105b64000080fb00610060004600dd00a171800040
:105b74000160a10001007000a07188000080800015
:105b84004300de00614060000080fb0061006000b3
:105b94004700dd00a17180000170a10001007000c8
:105ba400a0718800f80107005902070001808000f5
:105bb40000ff2f00008060000080880000808000cb
:105bc4003000b300008088000080800061406000e5
:105bd4000080fb00610060004400dd00a1718000d2
:105be4000140a10001007000a071880000808000c5
:105bf4000000d100614060000080fb006100600093
:105c04004500dd00a17180000150a1000100700079
:105c1400a0718800008080004200de0061406000c6
:105c24000080fb00610060004600dd00a17180007f
:105c34000160a10001007000a07188000080800054
:105c44004300de00614060000080fb0061006000f2
:105c54004700dd00a17180000170a1000100700007
:105c6400a0718800c8010700290207000180800094
:105c740000ff2f000080600000808800008080000a
:105c84003000b30000808800008080006140600024
:105c94000080fb00610060004400dd00a171800011
:105ca4000140a10001007000a07188000080800004
:105cb4000000d100614060000080fb0061006000d2
:105cc4004500dd00a17180000150a10001007000b9
:105cd400a0718800008080004200de006140600006
:105ce4000080fb00610060004600dd00a1718000bf
:105cf4000160a10001007000a07188000080800094
:105d04004300de00614060000080fb006100600031
:105d14004700dd00a17180000170a1000100700046
:105d2400a071880098010700f90107000180800034
:105d340000ff2f0000806000008088000080800049
:105d44000010a00000808800008080006140600096
:105d54000080fb00610060004400dd00a171800050
:105d64000140a10001007000a07188000080800043
:105d74000000d100614060000080fb006100600011
:105d84004500dd00a17180000150a10001007000f8
:105d9400a0718800008080004200de006140600045
:105da4000080fb00610060004600dd00a1718000fe
:105db4000160a10001007000a071880000808000d3
:105dc4004300de00614060000080fb006100600071
:105dd4004700dd00a17180000170a1000100700086
:105de400a071880068010700c901070080c2b300e0
:105df40035000700d2010700c0c0b300320007001d
:105e0400cf01070060c0b3002f000700cc010700da
:105e140010c0b3002c000700bd01070030808000d3
:105e24000080880000808000614060000080fb00ea
:105e3400610060004400dd00a17180000140a10008
:105e440001007000a0718800008080000000d10073
:105e5400614060000080fb00610060004500dd00df
:105e6400a17180000150a10001007000a0718800a0
:105e7400008080004200de00614060000080fb0082
:105e8400610060004600dd00a17180000160a10096
:105e940001007000a0718800008080004300de00d3
:105ea400614060000080fb00610060004700dd008d
:105eb400a17180000170a10001007000a071880030
:105ec4000080fa00000006000200fa00004f78008b
:105ed40000808000308088001e80fb004400de00cb
:105ee4000040780002f0b7000180800000ff2f001e
:105ef4008080600002d0bf000080fb0001007000c1
:105f04000080880000808000614060000080fb0009
:105f1400610060004400dd00a17180000140a10027
:105f240001007000a0718800008080000000d10092
:105f3400614060000080fb00610060004500dd00fe
:105f4400a17180000150a10001007000a0718800bf
:105f5400008080004200de00614060000080fb00a1
:105f6400610060004600dd00a17180000160a100b5
:105f740001007000a0718800008080004300de00f2
:105f8400614060000080fb00610060004700dd00ac
:105f9400a17180000170a10001007000a07188004f
:105fa400f90007009e4078006fc0600002f0b7005f
:105fb4000180800000ff2f008080600002d0bf00bd
:105fc4000080fb00010070000080880000808000d9
:105fd400614060000080fb00610060004400dd005f
:105fe400a17180000140a10001007000a07188002f
:105ff400008080000000d100614060000080fb0050
:10600400610060004500dd00a17180000150a10025
:1060140001007000a0718800008080004200de0052
:10602400614060000080fb00610060004600dd000c
:10603400a17180000160a10001007000a0718800be
:10604400008080004300de00614060000080fb00af
:10605400610060004700dd00a17180000170a100b3
:1060640001007000a0718800c70007003080800024
:106074000080880000808000614060000080fb0098
:10608400610060004400dd00a17180000140a100b6
:1060940001007000a0718800008080000000d10021
:1060a400614060000080fb00610060004500dd008d
:1060b400a17180000150a10001007000a07188004e
:1060c400008080004200de00614060000080fb0030
:1060d400610060004600dd00a17180000160a10044
:1060e40001007000a0718800008080004300de0081
:1060f400614060000080fb00610060004700dd003b
:10610400a17180000170a10001007000a0718800dd
:106114000b0107000080fa00000006000200fa00ec
:10612400004f780000808000308088001e80fb00d3
:106134004400de000040780002f0b70001808000d7
:1061440000ff2f008080600002d0bf000080fb00b1
:1061540001007000008088000080800061406000c1
:106164000080fb00610060004400dd00a17180003c
:106174000140a10001007000a0718800008080002f
:106184000000d100614060000080fb0061006000fd
:106194004500dd00a17180000150a10001007000e4
:1061a400a0718800008080004200de006140600031
:1061b4000080fb00610060004600dd00a1718000ea
:1061c4000160a10001007000a071880000808000bf
:1061d4004300de00614060000080fb00610060005d
:1061e4004700dd00a17180000170a1000100700072
:1061f400a0718800710007009e4078006fc06000a5
:1062040002f0b7000180800000ff2f008080600052
:1062140002d0bf000080fb000100700000808800f5
:1062240000808000614060000080fb00610060002d
:106234004400dd00a17180000140a1000100700054
:10624400a0718800008080000000d10061406000df
:106254000080fb00610060004500dd00a17180004a
:106264000150a10001007000a0718800008080002e
:106274004200de00614060000080fb0061006000bd
:106284004600dd00a17180000160a10001007000e2
:10629400a0718800008080004300de00614060003f
:1062a4000080fb00610060004700dd00a1718000f8
:1062b4000170a10001007000a07188003f00070078
:1062c4003080800000808800008080006140600091
:1062d4000080fb00610060004400dd00a1718000cb
:1062e4000140a10001007000a071880000808000be
:1062f4000000d100614060000080fb00610060008c
:106304004500dd00a17180000150a1000100700072
:10631400a0718800008080004200de0061406000bf
:106324000080fb00610060004600dd00a171800078
:106334000160a10001007000a0718800008080004d
:106344004300de00614060000080fb0061006000eb
:106354004700dd00a17180000170a1000100700000
:10636400a0718800760007000080fa000000060093
:106374000200fa00004f78001e40780067ff070013
:106384000080fa00000006000000fa00342ea90084
:1063940000000000344ea90000000000346ea80084
:1063a40000000000000000000000000000000000e9
:1063b400346ea9000080fa00000006000000fa0014
:1063c400342ea80000000000344ea9000000000094
:1063d400346ea8000000000000000000000000006f
:1063e40000000000346ea9000080fa0000000600de
:1063f4000200fa00004f7800114798001e409000f8
:106404000080fb000080e8008040780060002000ed
:106414000008dd001e404000abfe070048000700f6
:106424000080fa00000006000200fa00000f780065
:106434001e0078001040780003f0b70003d0bf00be
:106444000004e0000400320003d0bf0033ff070063
:106454001e0fe800f6ff37000080fa000000060077
:106464000200fa00000f78001e0078001040780047
:1064740003f0b70003d0bf000004e00004003200c2
:1064840003d0bf0025ff07001e0fe800f6ff37000a
:106494000080fa00000006000400fa00204798007b
:1064a4002e4090000080fb004400de00004f780086
:1064b4001e407800e94f50000300360071c3b3005a
:1064c4001ecf40000200370001c3b3001ecf4000be
:1064d4001e40780011ff07002e4090006f4f6000af
:1064e4001e407800e94f50000300360071c3b3002a
:1064f4001ecf40000200370001c3b3001ecf40008e
:106504001e40780005ff07000080fa000000060026
:106514000200fa000000eb00000f780002003700d0
:10652400070007001e0fe800300620009e007800d8
:10653400808f5000faff34000080fa00000006004b
:106544000400fa000000eb00000f7800040037009c
:106554001e0090000000e800100798001e0fe800dd
:10656400700c20009e007800808f5000f8ff3400eb
:106574000080fa00000006000600fa0020079800d8
:10658400ae009000d0cc2c000008b8004309de0017
:10659400d0cc2c000010b8004308de00ea00b9009b
:1065a400000f5100ae00900040062000000178006a
:1065b400110009008280d8008000fd0000017800ed
:1065c400d0cc2c000010b8004308de00ea00b9006b
:1065d40000005100100798001e0078000040780069
:1065e4000043b00062ff07001e00900000407800e6
:1065f4000043b0005eff07000080fa0000000600c0
:106604000800fa00300798003e009000c200de0047
:10661400b04721000008b8000100d100000f780045
:10662400be009000d0cc2c000008b8004309de0066
:10663400d0cc2c000010b8004308de00ea00b900fa
:106644000000510010079800be0090004006200092
:1066540000017800110009008280d8008000fd004c
:1066640000017800d0cc2c000010b8004308de00f4
:10667400ea00b90000005100200798001e007800cd
:10668400004078000043b00039ff07001e0090006e
:10669400004078000043b00035ff07002e00900052
:1066a400004078000043b00031ff07000080fa008a
:1066b400000006000800fa0020079800310798003f
:1066c4002e009000be009000823e200003002000b7
:1066d400ccf70700004f78002e009000be00900019
:1066e4004206200003002000c6f70700a200200095
:1066f40003002000d3f70700104798002e009000f5
:10670400be009000a200200003002000bdf7070097
:10671400a200200003002000caf7070020479800c9
:106724002e009000be0090004206200003002000ce
:10673400c4f70700a200200003002000c1f70700ef
:106744003047980001c3b3001ec0400008ff070093
:106754001e4090000043b00005ff07002e4090004b
:106764000043b00002ff07003e4090000043b00029
:10677400fffe07000080fa00000006001800fa007f
:10678400200f9800310f98002e089000be0890004a
:1067940002712200030020009af70700008fbe0058
:1067a4002e089000be089000823e200003002000c6
:1067b40094f70700a200200003002000a1f70700bf
:1067c40020079800310798002e089000be0890001a
:1067d40042062000030020008af70700a2002000e0
:1067e4000300200097f7070040079800510798001e
:1067f4002e089000be089000a20020000300200094
:1068040080f70700a2002000030020008df7070096
:1068140060079800710798002e089000be08900049
:10682400420620000300200086f70700a200200093
:106834000300200083f70700000f9800110f980051
:106844001e007800004078000043b000c8fe070036
:106854002e009000004078000043b000c4fe070002
:106864004e009000004078000043b000c0fe0700d6
:106874006e009000004078000043b000bcfe0700aa
:106884000e089000004078000043b000b8fe0700f6
:106894000080fa00000006000000fa00800c2000ce
:1068a4007d0207001000200097010700800c2000e3
:1068b4007902070010002000bd010700800c2000b1
:1068c40075020700800020008f010700800c200063
:1068d4007102070080002000b5010700800c200031
:1068e4006d0207000000eb00870107009000200004
:1068f40085010700800c20006702070010002000bb
:1069040081010700800020007f010700800c200027
:1069140061020700200020007b01070070002000b6
:1069240079010700800c20005b0207003000200082
:10693400750107006000200073010700800c20002f
:1069440055020700400020006f010700500020009e
:106954006d010700800c20004f020700400020005a
:10696400930107005000200091010700800c2000d3
:1069740049020700300020008d010700600020005c
:106984008b010700800c2000430207002000200038
:10699400870107007000200085010700800c20009b
:1069a4003d02070010002000810107008000200044
:1069b4007f010700800c2000370207000000eb0075
:1069c4007b0107009000200079010700800c200063
:1069d400310207000080fa00000006000000fa00ff
:1069e4001173800000202000008060000000e0009f
:1069f4000d003a00408080000000e80040808800dc
:106a04004080800094010700400620002202070015
:106a1400000000001173800000202000008060004e
:106a24000000e000fbff320011738000000420002e
:106a3400008060000000e0000d003a00408080000b
:106a44000000e90040808800408080008201070047
:106a540040062000100207000000000011738000af
:106a640000042000008060000000e000fbff320012
:106a74001173800000102000008060000000e0001e
:106a84000d003a00408080006a0040004080880089
:106a9400408080007001070040062000fe010700ce
:106aa40000000000117380000010200000806000ce
:106ab4000000e000fbff320011738000000820009a
:106ac400008060000000e0000d003a00408080007b
:106ad4006a00500040808800408080005e0107000a
:106ae40040062000ec010700000000001173800044
:106af40000082000008060000000e000fbff32007e
:106b04000080fa00000006000000fa001173800003
:106b140000102000008060000000e0000e003a0039
:106b2400608080000000e00003003200608080008c
:106b34000000e9006080880040062000d6010700bc
:106b4400000000001173800000102000008060002d
:106b54000000e000fbff32001173800000082000f9
:106b6400008060000000e0000e003a0060808000b9
:106b7400e50f500003003e00608080000000e80044
:106b84006080880040062000c30107000000000068
:106b94001173800000082000008060000000e00005
:106ba400fbff3200e2d42a008040eb000040eb00ff
:106bb4006f010700608080000040780072d52a00d1
:106bc40011c0b3006a0107000080fa00000006004b
:106bd4000200fa000000eb00000f78000500370007
:106be400800c2000ac0107001e007800c6000700de
:106bf4001e0fe8001e007800e90f5000f8ff340073
:106c0400508080000001780011c0b30030c0b30090
:106c1400670107000080fa00000006000200fa0085
:106c24001173800000102000008060000000e0006c
:106c340013003a000000eb00000f78000500370055
:106c4400800c2000940107001e007800d800070083
:106c54001e0fe8001e007800e90f5000f8ff340012
:106c6400400620008c010700000000001173800022
:106c740000102000008060000000e000fbff3200f4
:106c84000080fa00000006000200fa001173800080
:106c940000082000008060000000e0001e003a00b0
:106ca40051808000010f78009e007800638f4000bf
:106cb400300620009e007800808f500002003e00c5
:106cc4009e0078005180880060808000e50f5000ad
:106cd40003003e00608080000000e80060808800bf
:106ce40051808000608080000040780001017800bd
:106cf40011c0b3002e010700400620006601070002
:106d04000000000011738000000820000080600073
:106d14000000e000fbff32000080fa0000000600e3
:106d24000200fa001173800000042000008060005b
:106d34000000e0001d003a0051808000010f78003f
:106d44009e007800648f50001e0078000000e00070
:106d5400020032009e00780051808800608080002c
:106d64000000e00003003200608080000000e900c1
:106d7400608088005180800060808000004078003e
:106d84000101780011c0b30009010700400620008a
:106d9400410107000000000011738000000420007e
:106da400008060000000e000fbff32000080fa0079
:106db400000006000000fa0011738000002020008b
:106dc400008060000000e0001a003a009171800029
:106dd40000402000008060000000e00015003a0040
:106de4003000200050808800518080006080800046
:106df400004078000101780011c0b300ec000700e6
:106e040040062000240107000000000011738000e8
:106e140000202000008060000000e00005003a002f
:106e24009171800000402000008060000000e000bc
:106e3400f6ff32000080fa00000006000000fa00ad
:106e44000a0007001600070029010700c400070014
:106e5400200007005eff070070ff07008aff07009d
:106e6400afff0700d3ff0700fbff37000000fa0065
:106e7400a0032000303a8800213a8000f0f32f006c
:106e840000806000203a8800213a800000fe2f0034
:106e940000806000203a88000080fa0000000600ac
:106ea4000000fa00312ea900310ea90011aea9008c
:106eb400118ea900116ea900114ea900112ea9006e
:106ec400110ea90010eea90010cea9000080fa004e
:106ed400000006000000fa00352ea800350ea800b8
:106ee40015aea800158ea800156ea800154ea800b2
:106ef400152ea800150ea80014eea80014cea800a4
:106f04000080fa00000006000200fa00000f78007a
:106f14001e0078008000eb00920020000300200097
:106f2400820f5000838f58001f003e0000060100ae
:106f3400090037000a0037000b0037000c00370047
:106f44000d0037000e0037000f0037001000370027
:106f54001100370012003700352ea9001200370047
:106f640014cea9001000370014eea9000e0037005b
:106f7400150ea9000c003700152ea9000a003700d1
:106f8400154ea90008003700156ea9000600370049
:106f9400158ea9000400370015aea90002003700c1
:106fa400350ea900000000000080fa000000060071
:106fb4000200fa00000f78001e0078008000eb0049
:106fc4009200200003002000820f5000838f58009d
:106fd4001f003e0000060100090037000a003700c8
:106fe4000b0037000c0037000d0037000e0037008f
:106ff4000f0037001000370011003700120037006f
:10700400352ea8001200370014cea8001000370057
:1070140014eea8000e003700150ea8000c0037006f
:10702400152ea8000a003700154ea80008003700e6
:10703400156ea80006003700158ea800040037005e
:1070440015aea80002003700350ea80000000000ad
:107054000080fa00000006000800fa0030079800db
:107064003e019000d0cc2c000010b8004308de0094
:10707400ea00b90000005100000f78001e007800fb
:10708400be0090008080500040062000000178007f
:10709400110009008280d8008000fd008000780083
:1070a400d0cc2c000008b8004308de00100798007c
:1070b4009e00900060ff2f008088b9008000780057
:1070c4003e009000808040001e00780080805000c8
:1070d400803e200000017800110009008280d80061
:1070e4008000fd00c200de00b04721000008b800a7
:1070f4000100d100200798002e00900082ff0700b5
:10710400800c2000640007002e009000a8ff0700f8
:10711400800c2000600007001e0090007aff07002a
:10712400800c20005c0007001e009000a0ff0700f8
:10713400800c2000580007001e00780072ff070032
:10714400800c2000540007001e00780098ff070000
:10715400800c2000500007000080fa0000000600a8
:107164000000fa0052fa07000080fa00000006004e
:107174000400fa00004f78001147980012079800a5
:107184009e4090000040eb0099fc070000d42a00c8
:10719400a5fc07009e4090001e40780094fc070068
:1071a4001e009000a0fc07000080fa00000006000a
:1071b4000600fa00204798003147980022079800fb
:1071c40090d42a00000f7800ae009000811f780050
:1071d400a0d42a00801f78001e00780023f5070041
:1071e400e48757001e017800be4090002e409000b6
:0c71f400dfff07000080fa00000006002a
:020000040000fa
:1072000000100000080000008000000008100000ce
:1072100004000000820000001200020000000000d4
:107220000c10000002000000800000003010000080
:107230001a00000082000000686a6c00747a4c003a
:10724000000001000002000004000800001000001f
:10725000000020002b2d2300300000000e10000045
:10726000220000008200000030313200333435004b
:10727000363738003941420043444500460030006b
:1072800031323300343536003738390061626300fb
:0c729000646566000000000000000000c3
:020000040000fa
:10729c000600fa00200798000000eb00000f7800b1
:1072ac000b0037000000eb001007980003003700bc
:1072bc001e0090000000e800100798009e0090004f
:1072cc0080382100808f5000f9ff36001e0fe80037
:1072dc002e0090009e007800808f5000f1ff360049
:1072ec000080fa00000006000000fa00612ea800e1
:1072fc006f2ea90060cea8006ecea900610ea8006a
:10730c006f0ea90060eea8006eeea900408ea800da
:10731c004e8ea900314ea8000080fa000000060035
:020000040000fa
:0200000401f009
:04000c00830000006d
:020000040000fa
:0200000401f009
:0400100025000000c7
:020000040000fa
:0200000401f009
:040014007f00000069
:00000001FF
