:020000040000fa
:080000000022040000000000d2
:020000040000fa
:1000080004200000082000000c2000001020000040
:1000180014200000182000001c200000e02100002f
:100028002020000024200000282000002c200000b0
:100038003020000034200000382000003c20000060
:100048004020000044200000482000004c20000010
:100058005020000054200000582000005c200000c0
:100068006020000064200000682000006c20000070
:100078007020000074200000782000007c20000020
:100088008020000084200000882000008c200000d0
:100098009020000094200000982000009c20000080
:1000a800a0200000a4200000a8200000ac20000030
:1000b800b0200000b4200000b8200000bc200000e0
:1000c800c0200000c4200000c8200000cc20000090
:1000d800d0200000d4200000d8200000dc20000040
:1000e800e0200000e4200000e8200000ec200000f0
:1000f800f0200000f4200000f8200000fc200000a0
:100108000021000004210000082100000c2100004b
:10011800102100001421000018210000e021000037
:10012800e02100001c210000202100002421000003
:10013800282100002c21000030210000342100007b
:10014800e021000038210000e02100003c210000ef
:10015800e0210000e0210000e0210000e021000093
:10016800e021000040210000442100004821000057
:10017800e0210000e02100004c2100005021000097
:1001880054210000582100005c210000602100007b
:1001980064210000682100006c210000702100002b
:1001a8007421000078210000e0210000e021000017
:1001b800e0210000e0210000e0210000e021000033
:1001c800e0210000e0210000e0210000e021000023
:1001d800e0210000e0210000e0210000e021000013
:1001e800e0210000e0210000e0210000e021000003
:1001f800e0210000e02100007c21000080210000b7
:1002080084210000882100008c210000902100003a
:1002180094210000982100009c210000a0210000ea
:10022800a4210000a8210000ac210000b02100009a
:10023800b4210000e0210000b8210000bc2100002a
:10024800c0210000c4210000c8210000cc2100000a
:10025800d0210000d4210000d8210000dc210000ba
:020000040000fa
:104000000022040000000000fa220400000000006a
:10401000fa22040000000000fa2204000000000060
:10402000fa22040000000000fa2204000000000050
:10403000fa22040000000000fa2204000000000040
:10404000fa22040000000000fa2204000000000030
:10405000fa22040000000000fa2204000000000020
:10406000fa22040000000000fa2204000000000010
:10407000fa22040000000000fa2204000000000000
:10408000fa22040000000000fa22040000000000f0
:10409000fa22040000000000fa22040000000000e0
:1040a000fa22040000000000fa22040000000000d0
:1040b000fa22040000000000fa22040000000000c0
:1040c000fa22040000000000fa22040000000000b0
:1040d000fa22040000000000fa22040000000000a0
:1040e000fa22040000000000fa2204000000000090
:1040f000fa22040000000000fa2204000000000080
:10410000fa22040000000000fa220400000000006f
:10411000fa22040000000000fa220400000000005f
:10412000fa22040000000000fa220400000000004f
:10413000fa22040000000000fa220400000000003f
:10414000fa22040000000000fa220400000000002f
:10415000fa22040000000000fa220400000000001f
:10416000fa22040000000000fa220400000000000f
:10417000fa22040000000000fa22040000000000ff
:10418000fa22040000000000fa22040000000000ef
:10419000fa22040000000000fa22040000000000df
:1041a000fa22040000000000fa22040000000000cf
:1041b000fa22040000000000fa22040000000000bf
:1041c000fa22040000000000fa22040000000000af
:1041d000fa22040000000000fa220400000000009f
:1041e000fa22040000000000fa220400000000008f
:1041f000fa22040000000000fa220400000000007f
:10420000fa22040000000000fa220400000000006e
:10421000fa22040000000000fa220400000000005e
:10422000fa22040000000000fa220400000000004e
:10423000fa22040000000000fa220400000000003e
:10424000fa22040000000000fa220400000000002e
:10425000fa22040000000000fa220400000000001e
:10426000fa22040000000000fa220400000000000e
:10427000fa22040000000000fa22040000000000fe
:10428000fa22040000000000fa22040000000000ee
:10429000fa22040000000000fa22040000000000de
:1042a000fa22040000000000fa22040000000000ce
:1042b000fa22040000000000fa22040000000000be
:1042c000fa22040000000000fa22040000000000ae
:1042d000fa22040000000000fa220400000000009e
:1042e000fa22040000000000fa220400000000008e
:1042f000fa22040000000000fa220400000000007e
:10430000fa22040000000000fa220400000000006d
:10431000fa22040000000000fa220400000000005d
:10432000fa22040000000000fa220400000000004d
:10433000fa22040000000000fa220400000000003d
:10434000fa22040000000000fa220400000000002d
:10435000fa22040000000000fa220400000000001d
:10436000fa22040000000000fa220400000000000d
:10437000fa22040000000000fa22040000000000fd
:10438000fa22040000000000fa22040000000000ed
:10439000fa22040000000000fa22040000000000dd
:1043a000fa22040000000000fa22040000000000cd
:1043b000fa22040000000000fa22040000000000bd
:0843c000fa22040000000000d5
:020000040000fa
:104400000f0021000eff27000e01880000000000b1
:10441000000020000000e000020032000001200047
:104420002002880014000700740007000000e0006c
:1044300003003a00000020000100200002003700c5
:104440000000200001002000810f700001003200f8
:104450000f000700000020000000e0000200320012
:1044600000000200000000007223020000000000b3
:104470000040da000000fe00200020000000e00004
:1044800002003200100020009001880000000600a9
:10449000a1028800800478000000eb001f003700b4
:1044a000e284440054a0b4009905ba00e2844400b8
:1044b00054a0b4009906ba00e284440054a0b400a9
:1044c0000006eb00476fde00fd07b200ae0188007a
:1044d000636ce10003003a000ad801000000eb0021
:1044e0000e003700606ce10008003a00004deb0060
:1044f0000a05e800020039003420ec000af0a000b0
:104500008b05e900f9ff3e00040037006168e10017
:10451000010032000086eb000b00070019c7ba004b
:104520000e04e0001905ba0003003a000a00e0009a
:10453000dbff3a0000000600fe07b200ae02880072
:104540008a047800f5ff37000cd0a300e20f4d007d
:104550001c00390089027800354dba000a05e800d0
:10456000020039003420ec000af0a0008b05e900bd
:104570000f003200254dba000a05e800020039009c
:104580003420ec000af0a0008b05e900080032009e
:104590000c00e0000600320015cdba000a05e80064
:1045a000020039003420ec000af0a0008b05e9007d
:1045b0008984e80054a0b4000b00e000e2ff3a0058
:1045c000000006009902ba00055d78008b05e9003d
:1045d000f7ff3200c82ade00055d78008b05e90090
:1045e000f3ff32000c00e000f1ff320019ddba00e9
:1045f000eeff37000040da000000fe00000005007a
:020000040000fa
:104600000000fa00800c20002801070014cea90049
:10461000800c20002501070014cea800800c20008b
:104620002201070015aea900800c20001f01070021
:1046300015aea800800c20001c010700352ea90033
:10464000350ea900800c20001801070014cea90027
:1046500015aea900800c20001401070014eea9007b
:10466000158ea900800c200010010700150ea9006e
:10467000156ea900800c20000c010700152ea90062
:10468000154ea900800c200008010700152ea80077
:10469000154ea800800c200004010700150ea8008c
:1046a000156ea800800c20000001070014eea80081
:1046b000158ea800800c2000fc00070014cea80076
:1046c00015aea800800c2000f8000700352ea800c9
:1046d000350ea800800c2000f40007000080fa00ce
:1046e000000006000200fa00c0000700e300070017
:1046f00020012000000f78000100370000000000ba
:104700001173800000202000008060000000e000a5
:1047100003003a001e0fe8001e0078006f0007003b
:104720001173800000042000008060000000e000a1
:1047300003003a001e0fe9001e0078006700070022
:104740001173800000102000008060000000e00075
:1047500004003a009e0078006a8f40001e00780036
:104760005e000700117380000008200000806000d8
:104770000000e000e1ff3a009e0078006a8f5000e0
:104780001e00780055000700ddff37000200fa0028
:10479000000f78001e007800cf80de00920020001d
:1047a00003002000820f5000838f58001f003e003e
:1047b00000060100090037000a0037000b0037002f
:1047c0000c0037000d0037000e0037000f003700d7
:1047d000100037001100370012003700352ea900f5
:1047e0001200370014cea9001000370014eea90003
:1047f0000e003700150ea9000c003700152ea90079
:104800000a003700154ea90008003700156ea900f0
:1048100006003700158ea9000400370015aea90068
:1048200002003700350ea900000000000080fa00e9
:10483000000006000200fa00000f78001e00780059
:10484000cf80de009200200003002000820f500085
:10485000838f58001f003e0000060100090037004a
:104860000a0037000b0037000c0037000d0037003e
:104870000e0037000f00370010003700110037001e
:1048800012003700352ea8001200370014cea80001
:104890001000370014eea8000e003700150ea80017
:1048a0000c003700152ea8000a003700154ea8008e
:1048b00008003700156ea80006003700158ea80006
:1048c0000400370015aea80002003700350ea8001e
:1048d000000000000080fa00000006000800fa0056
:1048e00030079800be009000a00020000001780072
:1048f000110009008200d8008000fd00000f780040
:104900003e0090009e00500040062000000178000c
:10491000110009008200d8008000fd00000178002d
:10492000706626000090b900c288de004f90de005d
:1049300000805000100798009e00900060ff2f003c
:104940008088b900800078003e0090000080400020
:104950009e005000803e20000001780011000900f8
:104960008200d8008000fd0000017800b0472100df
:104970000090b900c388de004f90de000080500038
:10498000200798002e00900080ff0700800c200078
:10499000460007002e009000a6ff0700800c2000b4
:1049a000420007001e00900078ff0700800c2000e6
:1049b0003e0007001e0090009eff0700800c2000b4
:1049c0003a0007001e00780070ff0700800c2000ee
:1049d000360007001e00780096ff0700800c2000bc
:1049e000320007000080fa00000006000000fa0014
:1049f000a0032000303a8800213a8000f0f32f0015
:104a000000806000203a8800213a800000fe2f00dc
:104a100000806000203a88000080fa000000060054
:104a20000000fa00312ea900352ea800310ea90091
:104a3000350ea80011aea90015aea800118ea90070
:104a4000158ea800116ea900156ea800114ea900c0
:104a5000154ea800112ea900152ea800110ea900b0
:104a6000150ea80010eea90014eea80010cea900a3
:104a700014cea8000080fa00000006000000fa0032
:104a8000e7ff0700612ea8006f2ea90060cea800e6
:104a90006ecea900610ea8006f0ea90060eea800fe
:104aa0006eeea9000080fa00000006000600fa0081
:104ab000200798000000eb00000f78000b00370083
:104ac0000000eb0010079800030037001e00900064
:104ad0000000e800100798009e0090008038210038
:104ae000808f5000f9ff36001e0fe8002e00900066
:104af0009e007800808f5000f1ff36000080fa00a1
:044b000000000600ab
:020000040000fa
:0200000401f009
:04000c00830000006d
:020000040000fa
:0200000401f009
:0400100025000000c7
:020000040000fa
:0200000401f009
:040014007f00000069
:00000001FF
